:020000040800F2
:10000000C0050020AD010008AD2400085D210008F6
:10001000A9240008DD0A0008A52800080000000047
:10002000000000000000000000000000EB240008B9
:10003000A30C000800000000E9240008ED240008DB
:10004000C7010008C7010008C7010008C701000870
:10005000C7010008C7010008C7010008C701000860
:10006000C7010008C7010008C7010008C701000850
:10007000C7010008C7010008C7010008C701000840
:10008000C7010008C7010008C70100080000000000
:10009000000000000000000000000000C701000890
:1000A000C7010008C7010008C7010008C701000810
:1000B000C7010008C7010008C7010008C701000800
:1000C000C7010008C7010008C7010008C7010008F0
:1000D000C7010008C7010008C701000800000000B0
:1000E000C7010008C7010008C701000800000000A0
:1000F000000000000000000000000000C701000830
:1001000000000000C7010008C7010008C70100087F
:1001100000000000000000000000000000000000DF
:10012000B50B0008C7010008C7010008C701000897
:10013000C7010008000000000000000000000000EF
:10014000000000000000000000000000C7010008DF
:10015000C7010008C7010008C7010008C70100085F
:10016000C7010008C70100080000000000000000EF
:10017000000000000000000000000000000000007F
:1001800000000000C701000800000000000000009F
:10019000C7010008C7010008DFF80CD000F080FBA1
:1001A00000480047DD3F0008C005002006488047A2
:1001B00006480047FEE7FEE7FEE7FEE7FEE7FEE74C
:1001C000FEE7FEE7FEE7FEE7DD25000899010008EF
:1001D0002DE9F05F0546002092469B46884606467C
:1001E000814640241BE0284641464746224600F00F
:1001F00046FA53465A46C01A914110D31146184642
:10020000224600F02DFA2D1A67EB01084F462246D0
:100210000120002100F024FA17EB00094E41201EB6
:10022000A4F10104DFDC484631462A464346BDE8D6
:10023000F09F2DE9FE4F804681EA0300C00F0C4677
:10024000009021F0004123F00045B8EB0200A941E5
:1002500005D24046214690461C460B46024623F0F6
:100260000040104347D0270DC7F30A00C3F30A51DB
:100270000290401A019040286BDAC3F3130040F457
:10028000801B0098924620B10023D2EB030A63EB57
:100290000B0B01985946C0F14002504600F0E0F9BE
:1002A00006460D4650465946019A00F0F8F910EB03
:1002B00008006141002487EA115284EAE7731A4377
:1002C00040D0009A62B3019A012A4FEA075215DC26
:1002D000001B61EB02014FF0004202EA0752CDE938
:1002E0000042001C41F5801132462B4600F02FFAE7
:1002F00003B0BDE8F08F40462146F9E7001B61EBF3
:100300000201001C41F5801300185B412018A2F582
:10031000001747EB030140EAD570B6196D4111E0B3
:100320006D084FEA360645EAC0754FEA0752001BD2
:1003300061EB0201001C41F5801149084FEA3000D1
:100340000019514132462B4603B0BDE8F04F00F092
:10035000EFB90098012240000023D0EB020263EBCA
:10036000E073009821464FEAE074B8EB000061EBBF
:100370000401E9E783F000435BE781F0004158E7BF
:100380002DE9FE4F81EA030404F0004421F000410E
:1003900000944FF0000B23F0004350EA01045ED0BC
:1003A00052EA03045BD0C3F30A54C1F30A552C4448
:1003B000A4F2F3340194A0FB0254C1F3130141F4FD
:1003C0008011C3F3130343F4801301FB024400FBC9
:1003D000034E840A970A44EA815447EA8357A4FBF0
:1003E000076802958D0A05FB07854FEA932C04FBED
:1003F0000C542705029D4FEA065847EA1637B5EB1D
:1004000008056EEB070C870E920E47EA811742EA49
:100410008312A7FB0201B6EB0B0164EB00042B0D6A
:1004200043EA0C335E1844EB1C50DA465146E7FBB6
:100430000201C5F313044FEA0B3343EA14534FEAA6
:100440000432019C43EA0603A4F10C040294009CCC
:10045000CDE900B400F07BF903B0BDE8F08F0020D7
:100460000146F9E72DE9F04D81EA030404F0004B61
:1004700021F0004514464FF0000A23F0004150EAF5
:10048000050220D054EA01021DD0C5F30A570246E6
:10049000C5F31303C1F31300C1F30A5640F48015EA
:1004A00043F48013A7EB0608101BD64608F2FD386C
:1004B00073EB050002D308F1010801E092185B41DB
:1004C000B8F1000F03DA00200146BDE8F08D0020EE
:1004D0004FF48011064684460EE0171B73EB0507A8
:1004E00005D3121B63EB050306434CEA010C4908D4
:1004F0004FEA300092185B4150EA0107EDD152EA11
:10050000030012D082EA040083EA0501084305D003
:10051000101BAB4106D20122002306E000224FF05F
:10052000004302E06FF0010253101AEB06004CEB9F
:10053000085110EB0A0041EB0B01BDE8F04D00F053
:10054000F7B80EB5C10F80EAE0700844CA07002171
:1005500040F233438DE80E000A460B4600F0F7F8F0
:1005600003B000BD70B5C1F30A5201F0004500248C
:10057000C1F3130140F2FF3341F480119A4201DAD2
:10058000002070BD40F233439A42A2F2334203DCB2
:10059000524200F074F800E090402C43F1D0404209
:1005A00070BD00F0004230F000400AD0C10D01F5EE
:1005B0006071C0F3160042EA0151C20840071143BE
:1005C000704700200146704730B5041E71F10004E9
:1005D00004DB4FF00044404264EB0101141E73F150
:1005E000000405DB1C464FF00043524263EB04035A
:1005F0008B4208BF824230BD30B5041E71F1000449
:1006000004DB4FF00044404264EB0101141E73F11F
:10061000000405DB1C464FF00043524263EB040329
:10062000994208BF904230BD01F0004330B421F040
:10063000004150EA010206D00A0DA2F56072C1F332
:100640001301002A02DC30BC00207047440F44EA4A
:10065000C104C100E01830BC00EBC25000F031B85A
:10066000202A04DB203A00FA02F100207047914072
:10067000C2F1200320FA03F3194390407047202A67
:1006800004DB203A21FA02F00021704721FA02F33C
:10069000D040C2F120029140084319467047202AF9
:1006A00006DBCB17203A41FA02F043EAE07306E09A
:1006B00041FA02F3D040C2F12002914008431946AA
:1006C00070470029A8BF7047401C490008BF20F0B0
:1006D0000100704710B4B0FA80FC00FA0CF050EA48
:1006E000010404BF10BC704749B1CCF1200421FAC9
:1006F00004F411FA0CF118BF012121430843A3EBC4
:100700000C01CB1D4FEA00614FEA102042BF0020D0
:1007100010BC704700EBC35010440029A4BF10BCAC
:100720007047401C490008BF20F0010010BC704712
:1007300010B5141E73F1000408DA401C41F10001E9
:1007400092185B411A4301D120F0010010BD2DE940
:10075000F04D92469B4611B1B1FA81F202E0B0FA37
:1007600080F220329046FFF77BFF04460F4640EAB6
:100770000A0041EA0B0153465A46084313D011467A
:1007800053EA010019D0C8F140025046FFF777FF45
:1007900005460E46504659464246FFF761FF08435C
:1007A00005D0012004E020463946BDE8F08D002048
:1007B000054346EAE0762C4337430A986305E40A8A
:1007C000A0EB08000022FD0A44EA47540A3002D593
:1007D00000200146E9E7010510196941DDE90845F6
:1007E00000196941BDE8F04DA2E770B521F0004362
:1007F00003430CD0C1F30A550024D5EB040564EB88
:100800000403D617AD1AB34102DB0020014670BDC8
:10081000201841EB025170BD2DE9FE4FC3F30A577A
:1008200001F000450024C1F30A56C3F31303C1F3DA
:10083000130143F4801312EB020AA64641F480111F
:10084000009543EB030CA7F1010B16E0B0EB0A0097
:1008500061EB0C01071E71F1000707DA4FF0000889
:10086000D0EB080085F0004568EB0101171A73EB27
:100870000107EBD3761E001849415E45F6DA50EACF
:10088000010209D0CDE900E5002213460296FFF7E8
:100890005EFF03B0BDE8F08F20460099F9E7000045
:1008A000064C074D06E0E06840F0010394E80700BD
:1008B00098471034AC42F6D3FFF772FCD84B0008CF
:1008C000F84B00082DE9F04D00231A461B1A8A4107
:1008D00003DB00200146BDE8F08DC1F30A52C1F3ED
:1008E000130141F480154FF0000BD10702D100181D
:1008F0006D41521E0027044640F2FF11384601EBBD
:10090000620A3E468046024600204FF48011FFF7FF
:10091000B6FEC2197141BB1846EB0100B4EB030CE3
:1009200075EB000C04D3E41A65EB000517460E4680
:10093000241908F101006D4180463428E3DDF919DE
:1009400046EB0600091BA84103D24FF0FF321346C5
:1009500001E0002213461BEB070046EB0A51BDE8FD
:10096000F04DFFF7E5BE0EB540F233410291002194
:10097000CDE900110A460B46FFF7E9FE03B000BDC2
:1009800054494A6822F440324A604A6843681A432C
:100990004A600268526822F4807203685A600268F2
:1009A0005368026943EA022203685A600268526887
:1009B00022F0407203685A600268526883681A43E2
:1009C00003685A600268926822F4006203689A60C1
:1009D00002689268C3681A4303689A603E4B826A51
:1009E0009A4218D00268926822F0706203689A6096
:1009F00002689268836A1A4303689A600268926880
:100A000022F0405203689A6002689268C36A1A43EF
:100A100003689A600BE00268926822F070620368D3
:100A20009A600268926822F0405203689A600268F5
:100A3000926822F0020203689A60026893688269F1
:100A400043EA420203689A60026AA2B102685268ED
:100A500042F4006203685A600268526822F46042FD
:100A600003685A6002685368426A521E43EA42327F
:100A700003685A6005E00268526822F40062036865
:100A80005A600268D26A22F470020368DA6202686D
:100A9000D36A828B521E43EA02520368DA6202680A
:100AA000926822F4007203689A6002689368026B8D
:100AB00043EA422203689A600268926822F48062E4
:100AC00003689A6002689368426943EA8222036875
:100AD0009A607047002301400100000F00BFFEE74D
:100AE00010B52DED048B2A480068FFF72AFD41EC74
:100AF000180B9FED280B53EC102BFFF77DFD05D84D
:100B000003F0DEFA00202249086004E02048006873
:100B1000401C1F49086021480068FFF712FD41ECA6
:100B2000180B9FED1F0B53EC102BFFF765FD27D81B
:100B300003F0C6FD1C4890ED000A10EE101A08469E
:100B4000FFF72FFD41EC190BB0EE490AF0EE690AF0
:100B500001F02AFFB0EE408AF0EE608A9FED130BA1
:100B600053EC102B51EC180BFFF72EFD02D203F0C3
:100B700009FC01E003F05EFC00200849086004E085
:100B800006480068401C05490860BDEC048B10BD98
:100B9000100000200000000000002440140000208D
:100BA0000000000000004940B001002055F29C7692
:100BB0002F1BD43F10B5024800F0DAF910BD000039
:100BC0009C0000200146087810381823B0FBF3F28F
:100BD0000848805CC865032A05D908686FF30900D6
:100BE000001D886503E008686FF309008865886D5B
:100BF00070470000FA490008014600208A6A8B69A4
:100C0000CBB932B1012A0DD0022A03D0032A10D168
:100C10000EE000BFCB6A03F08073B3F1807F00D198
:100C2000012007E0CB6AB3F1C07F00D1012001E0D1
:100C300000E000BF34E08B69B3F5005F1AD132B138
:100C4000012A07D0022A03D0032A11D10AE000BFEB
:100C500001200EE0CB6A03F08073B3F1807F00D1F6
:100C6000012006E0CB6AB3F1C07F00D1012000E093
:100C700000BF15E032B1012A05D0022A04D0032AB0
:100C80000CD103E000BF00BF012008E0CB6A03F0F5
:100C90008073B3F1807F00D1012000E000BF00BF6E
:100CA0007047704738B502460020009000BF92F8A8
:100CB0003C00012801D1022038BD012082F83C000F
:100CC00000BF0868092816D91068C0680C780A3C6B
:100CD00004EB44050724AC40A0431468E0600C78A2
:100CE0000A3C04EB44048868A0401468E46820438C
:100CF0001468E06013E0106800690C7804EB4405A8
:100D00000724AC40A043146820610C7804EB440431
:100D10008868A040146824692043146820614868EA
:100D2000072817D21068406B0C79641E04EB840509
:100D30001F24AC40A04314686063088880B20C791B
:100D4000641E04EB8404A0401468646B20431468A0
:100D5000606331E048680D2817D21068006B0C7989
:100D6000E41F04EB84051F24AC40A04314682063F7
:100D7000088880B20C79E41F04EB8404A040146856
:100D8000246B20431468206316E01068C06A0C7955
:100D90000D3C04EB84051F24AC40A0431468E062C2
:100DA000088880B20C790D3C04EB8404A0401468E0
:100DB000E46A20431468E0621A4B1B4C1068A0429E
:100DC00006D10868122803D1586840F480005860A2
:100DD000154C1068A0421ED1144C0868A04202D0E5
:100DE0000868112817D1586840F4000058600F4C6B
:100DF0000868A0420FD10E4800680E4CB0FBF4F01A
:100E000000EB80004000009002E00098401E00903F
:100E100000980028F9D100BF002082F83C0000BFF4
:100E200000BF49E7002301400020014012000010EC
:100E30002400002040420F0070B5044600250CB984
:100E4000012070BD1549A06A884200D000BF206C07
:100E500030B90020606484F83C00204600F020F89F
:100E6000206C00F0100088B9206C20F4885040F00D
:100E7000020020642046FFF783FD00206064206CA0
:100E800020F0020040F00100206400E0012500BFD6
:100E9000002084F83C0000BF2846D2E70100000F84
:100EA00010B586B0044625492068884244D100BF69
:100EB000002000902248006840F4807020490860BB
:100EC0000846006800F48070009000BF00BF10204A
:100ED0000190032002900020039001A9194800F01E
:100EE000DDF901200190032002900020039001A968
:100EF000154800F0D3F915481549086000204860EE
:100F0000002113488160C1604FF480610161890054
:100F10004161890081618911C161002101624162E1
:100F200000F046F918B17B210AA001F0BDFC00BF1A
:100F30000748A063846300BF06B010BD00200140D5
:100F400044380240000002400004024010640240A5
:100F50009C0000202E2E2F5372632F73746D33323A
:100F6000663478785F68616C5F6D73702E63000023
:100F7000F8B50446002000908C4800684FF41651E4
:100F8000B0FBF1F7A56D2E6894F85C10082088403E
:100F9000304098B12068006800F0040070B120680B
:100FA000006820F004002168086094F85C100820B4
:100FB0008840A860606D40F00100606594F85C10A6
:100FC00001208840304068B12068406900F080000E
:100FD00040B194F85C1001208840A860606D40F03A
:100FE0000200606594F85C1004208840304068B1CD
:100FF0002068006800F0020040B194F85C10042002
:101000008840A860606D40F00400606594F85C1052
:1010100010208840304078B32068006800F0080055
:1010200050B394F85C1010208840A86020680068D5
:1010300000F4802080B12068006800F4002028B906
:10104000206CC8B12046216C884715E0A06C98B18F
:101050002046A16C88470FE02068006800F480708B
:1010600028B92068006820F0080021680860206C1A
:1010700010B12046216C884794F85C1020208840ED
:101080003040002865D02068006800F0100000287B
:101090005FD094F85C1020208840A86094F8350058
:1010A000052828D12068006820F016002168086013
:1010B0002068406920F0800021684861206C08B9F0
:1010C000A06C28B12068006820F008002168086042
:1010D00094F85C103F208840A86000BF002084F88E
:1010E000340000BF012084F83500206D10B1204687
:1010F000216D8847F8BD2068006800F4802080B129
:101100002068006800F4002028B9606C10B1204607
:10111000616C88471DE0E06BD8B12046E16B8847E1
:1011200017E02068006800F4807068B920680068E3
:1011300020F010002168086000BF002084F834000F
:1011400000BF012084F83500E06B10B12046E16B50
:101150008847606D38B3606D00F00100F0B1052084
:1011600084F835002068006820F0010021680860DC
:1011700000BF0098401C0090B84200D905E02068EC
:10118000006800F001000028F3D100BF00BF00207C
:1011900084F8340000BF012084F83500E06C10B101
:1011A0002046E16C884700BFA4E70000240000202F
:1011B0002DE9F0410446002500F060F9074614B916
:1011C0000120BDE8F081606A00B100BF00BF0020CF
:1011D00084F8340000BF022084F8350020680068DD
:1011E00020F00100216808600AE000F047F9C01B08
:1011F000052805D920206065032084F83500E0E744
:101200002068006800F001000028EED12068056821
:1012100021480540D4E901010843E16808432169F8
:10122000084361690843A1690843E1690843216AE9
:1012300008430543606A042803D1D4E90B0108433D
:101240000543206805602068456925F00705606A48
:101250000543606A04280DD1A06A0543E06A48B1DD
:101260002046FFF7C9FC28B140206065012084F8C2
:101270003500A6E7206845612046FFF7A3FC064637
:1012800094F85C103F208840B06000206065012029
:1012900084F83500002094E73F8010F0F8B503464D
:1012A0000A460025002400200021CDE0012606FA90
:1012B00001F5166806EA0504AC4273D15668022EA1
:1012C00002D05668122E13D1CF0803F1200656F82B
:1012D00027004E07F70E0F26BE40B0434F07FF0E04
:1012E0001669BE403043CF0803F1200646F82700B8
:1012F00018684F000326BE40B043167906F0030677
:101300004F00BE40304318605668012E08D0566822
:10131000022E05D05668112E02D05668122E13D117
:1013200098684F000326BE40B0434F00D668BE40C9
:1013300030439860586801268E40B0431679C6F352
:1013400000168E4030435860D8684F000326BE40D8
:10135000B0434F009668BE403043D860566806F0F0
:101360008056B6F1805F6ED100BF00260096384EE1
:10137000366846F48046364F3E603E46366806F490
:101380008046009600BF00BF324E8F0856F82700F7
:101390008E07370F0F26BE40B0432F4EB34202D107
:1013A000002615E04FE02D4EB34201D101260FE09B
:1013B0002B4EB34201D102260AE02A4EB34201D19C
:1013C000032605E0284EB34201D1042600E007269B
:1013D0008F073F0FBE4030431E4E8F0846F8270050
:1013E000224E3068A043566806F48036B6F5803F3A
:1013F00000D120431D4E3060361D3068A043566832
:1014000006F40036B6F5003F00D12043174E361DD6
:101410003060361D3068A043566806F48016B6F575
:10142000801F00D12043114E08363060361D3068D1
:10143000A043566806F40016B6F5001F00D12043FD
:101440000A4E0C363060491C1029FFF42FAFF8BD4E
:1014500044380240083801400000024000040240C5
:1014600000080240000C024000100240003C014015
:101470000AB1816101E00B04836170470148006893
:1014800070470000180000200348006803490978ED
:10149000084401490860704718000020200000201F
:1014A00010B50D48006840F400700B49086008460C
:1014B000006840F4806008600846006840F480706E
:1014C0000860032000F0CAF8002000F007F800F0E0
:1014D0002BF8002010BD0000003C024070B504460F
:1014E0000E4800784FF47A71B1FBF0F00C490968AE
:1014F000B1FBF0F5284600F01CFC08B1012070BDDE
:10150000102C07D200222146501E00F068F8054832
:10151000046001E00120F2E70020F0E72000002055
:10152000240000201C00002008B500BF002000900F
:101530002348006840F4804021490860084600685C
:1015400000F48040009000BF00BF00BF002000906A
:10155000081F006840F08050091F086008460068B6
:1015600000F08050009000BF00BF032000F076F82C
:10157000002211466FF00B0000F031F800221146F6
:101580006FF00A0000F02BF8002211466FF00900FE
:1015900000F025F800221146501F00F020F800222C
:1015A0001146101F00F01BF800221146901E00F09B
:1015B00016F800221146501E00F011F808BD000078
:1015C0004438024000BF00F01F020121914042094F
:1015D000920002F1E022C2F8001100BF70472DE92D
:1015E000F05F80460D461646002700F061FF074673
:1015F00039462A46334601F00700C0F1070ABAF11E
:10160000040F02D94FF0040A01E0C0F1070AD146E5
:1016100000F1040ABAF1070F02D24FF0000A01E00C
:10162000A0F1030AD4464FF0010A0AFA09FAAAF116
:10163000010A0AEA020A0AFA0CFA4FF0010B0BFA45
:101640000CFBABF1010B0BEA030B4AEA0B0421463E
:10165000404600F035FFBDE8F09F000000BF00F0FD
:101660000702064B19684FF6FF031940044B0B4362
:1016700043EA0221014B196000BF70470CED00E006
:101680000000FA0570B504460D460CB9012070BD86
:101690005848006800F00F00A84209D255490D7063
:1016A0000846006800F00F00A84201D00120EEE7D4
:1016B000207800F0020002281DD1207800F00400FC
:1016C000042805D14C48006840F4E0504A490860BD
:1016D000207800F00800082805D14748006840F449
:1016E0006040454908604448006820F0F000A16867
:1016F000084341490860207800F00100A8B3606801
:10170000012807D13C4808380068C0F34040B8B908
:101710000120BCE76068022802D06068032807D176
:10172000354808380068C0F3406048B90120AEE78A
:10173000314808380068C0F3400008B90120A6E726
:101740002D48006820F00300616808432A490860BA
:10175000FFF794FE064609E0FFF790FE801B41F27A
:101760008831884202D9032091E707E022480068C7
:1017700000F00C006168B0EB810FEDD11D480068EE
:1017800000F00F00A84209D91A490D7008460068F8
:1017900000F00F00A84201D0012078E7207800F087
:1017A0000400042807D11448006820F4E050E168E0
:1017B000084311490860207800F00800082808D183
:1017C0000D48006820F46040216940EAC1000A49E0
:1017D000086000F01DF808490968C1F30311074AC1
:1017E000515CC840064908600020FFF777FE0020E2
:1017F0004DE70000003C024008380240024A000861
:1018000024000020014800687047000024000020E8
:101810002DE9F047002400250026A1462548006850
:1018200000F00C0020B1042805D008283AD105E0CA
:10183000DFF8849039E0DFF8849036E01D48001F1F
:10184000006800F03F041B48001F006800F480009F
:1018500078B11A481749091F0968C1F38811A0FB1C
:1018600001700146224600233846FEF7B1FC0546CA
:101870000EE011480F49091F0968C1F38811A0FB48
:1018800001700146224600233846FEF7A1FC0546BA
:101890000848001F0068C0F30140401C4600B5FB2B
:1018A000F6F902E0DFF8109000BF00BF4846BDE83F
:1018B000F0870000083802400024F40040787D01E1
:1018C000F8B504460CB90120F8BD207800F00100FD
:1018D000002874D0F948006800F00C0004280DD0EE
:1018E000F648006800F00C00082813D1F348001FE8
:1018F000006800F48000B0F5800F0BD1EF48083885
:101900000068C0F34040002859D06068002856D1D4
:101910000120D9E700BF6068B0F5803F08D1E748F3
:101920000838006840F48030E449083908601EE057
:101930006068B0F5A02F0DD1E0480838006840F489
:101940008020DE49083908600846006840F480308D
:1019500008600CE0D9480838006820F48030D74986
:10196000083908600846006820F48020086000BF3D
:10197000606890B1FFF782FD054606E0FFF77EFD47
:10198000401B642801D903209EE7CC480838006832
:10199000C0F340400028F1D011E0FFF76FFD05468D
:1019A00006E0FFF76BFD401B642801D903208BE79D
:1019B000C24808380068C0F340400028F1D12078C0
:1019C00000F0020002285FD1BC48006800F00C0063
:1019D00058B1BA48006800F00C0008281CD1B7487C
:1019E000001F006800F48000B0B9B44808380068EF
:1019F000C0F3400020B1E068012801D0012063E776
:101A0000AE480838006820F0F800216940EAC100BB
:101A1000AA490839086037E0E06800B30120A84906
:101A20000860FFF72BFD054606E0FFF727FD401B8A
:101A3000022801D9032047E7A04808380068C0F30E
:101A400040000028F1D09D480838006820F0F800D8
:101A5000216940EAC10099490839086014E0002072
:101A600097490860FFF70AFD054606E0FFF706FD07
:101A7000401B022801D9032026E790480838006857
:101A8000C0F340000028F1D1207800F008000828B9
:101A90002CD16069A8B101208A490860FFF7EEFCEB
:101AA000054606E0FFF7EAFC401B022801D90320A7
:101AB0000AE782486C300068C0F340000028F1D08B
:101AC00014E000207F490860FFF7D8FC054606E0D7
:101AD000FFF7D4FC401B022801D90320F4E6774825
:101AE0006C300068C0F340000028F1D1207800F08D
:101AF0000400042870D1002670483830006800F0D7
:101B0000805090B900BF002000906C4838300068C9
:101B100040F080506949383108600846006800F09C
:101B20008050009000BF00BF01266748006800F4A5
:101B30008070B0B96448006840F480706249086001
:101B4000FFF79CFC054606E0FFF798FC401B0228C7
:101B500001D90320B8E65C48006800F480700028D2
:101B6000F2D000BFA068012808D15448683000684E
:101B700040F001005149683108601DE0A068052867
:101B80000DD14E486830006840F004004B49683180
:101B900008600846006840F0010008600CE0474813
:101BA0006830006820F00100444968310860084648
:101BB000006820F00400086000BFA068A8B1FFF72B
:101BC0005DFC054609E0FFF759FC401B41F28831F6
:101BD000884202D9032077E626E03848683000685A
:101BE000C0F340000028EED013E0FFF747FC0546A5
:101BF00008E0FFF743FC401B41F28831884201D9DD
:101C0000032061E62D4868300068C0F340000028DA
:101C1000EFD1012E07D129483830006820F08050DC
:101C200026493831086000BFA069B8B3234800686E
:101C300000F00C0008285ED0A069022846D10020E0
:101C40001F490866FFF71AFC054606E0FFF716FC79
:101C5000401B022801D9032036E6184808380068DE
:101C6000C0F340600028F1D1D4E907010843616A5C
:101C700040EA81110122A06AC2EB500041EA004112
:101C80002C20005D41EA00600C49091F086001201A
:101C90000B490866FFF7F2FB054607E02DE0FFF76A
:101CA000EDFB401B022801D903200DE6034808384C
:101CB0000068C0F340600028F1D01EE00838024000
:101CC00000004742800E47420070004000200C494F
:101CD0000866FFF7D3FB054606E0FFF7CFFB401B86
:101CE000022801D90320EFE506480068C0F34060F0
:101CF0000028F2D101E00120E6E50020E4E5000043
:101D00000000474200380240042808D14FF0E0218B
:101D1000096941F004014FF0E022116107E04FF042
:101D2000E021096921F004014FF0E02211617047C0
:101D3000704770B504462546681EB0F1807F01D318
:101D400001200FE0681E4FF0E02148610F214FF0A5
:101D5000FF3000F0B5FB00204FF0E0218861072044
:101D60000861002070BD10B5FFF7E2FF10BD02460C
:101D700000BF92F83800012801D1022070470120ED
:101D800082F8380000BF022082F8390010684068ED
:101D900020F0700013685860106840680B681843A2
:101DA000136858601068806820F08000136898609D
:101DB000106880684B68184313689860012082F8A7
:101DC000390000BF002082F8380000BF00BFD5E70F
:101DD0002DE9F04104460D464FF00008002600278B
:101DE00014B90120BDE8F08194F8390028B9002029
:101DF00084F83800204600F045F8022084F83900C5
:101E00002068806820F0070021688860211D206814
:101E100000F016FC2068D0F80880206886692068E9
:101E2000076A286840EA080840F203308643A96937
:101E3000A86840EA0120064340F60C4086434FF272
:101E4000F0008643E969E86840EA01200643286912
:101E50000001296A40EA0130064327F0220727F0F3
:101E600088076969686840EA011007432068C0F87C
:101E700008802068866120680762012084F83900A4
:101E80000020AFE710B586B0044623492068884299
:101E90001DD100BF002000902048006840F00200E3
:101EA0001E4908600846006800F00200009000BF6C
:101EB00000BFC020019002200290002003900490F7
:101EC0000220059001A91648FFF7E8F921E015491D
:101ED000206888421DD100BF002000900F48006894
:101EE00040F004000D4908600846006800F0040056
:101EF000009000BF00BFC02001900220029001208E
:101F00000390002004900220059001A90648FFF7E5
:101F1000C5F906B010BD0000000400404038024082
:101F200000000240000800400004024030B50446B2
:101F30000D4615B1042D0CD105E0012200212068C9
:101F400000F0D6FB10E001220421206800F0D0FB55
:101F50000AE001220021206800F0CAFB01220421CE
:101F6000206800F0C5FB00BF00BF2068006840F09B
:101F7000010021680860002030BD000010B586B067
:101F800004462068B0F1804F0DD14FF4806001907D
:101F9000022002900020039004900120059001A9E6
:101FA0000248FFF77BF906B010BD000000040240B4
:101FB00070B504460D46164600BF94F83800012857
:101FC00001D1022070BD012084F8380000BF02203A
:101FD00084F8390036B1042E1BD0082E31D00C2ED7
:101FE0005ED145E02946206800F090FB20688069BA
:101FF00040F00800216888612068806920F00400B2
:10200000216888612068806929690843216888619E
:1020100047E02946206800F0ABFB2068806940F467
:102020000060216888612068806920F480602168F0
:10203000886120688069296940EA012021688861F7
:102040002FE02946206800F0CBFB2068C06940F0F3
:1020500008002168C8612068C06920F00400216878
:10206000C8612068C069296908432168C86118E00F
:102070002946206800F0EAFB2068C06940F400604F
:102080002168C8612068C06920F480602168C86147
:102090002068C069296940EA01202168C86100E020
:1020A00000BF00BF012084F8390000BF002084F881
:1020B000380000BF00BF85E710B504460CB9012009
:1020C00010BD94F8390028B9002084F83800204663
:1020D00000F00CF8022084F83900211D206800F07F
:1020E000AFFA012084F839000020E9E708B501685B
:1020F000B1F1804F0FD100BF00210091064909685E
:1021000041F00101044A11601146096801F0010122
:10211000009100BF00BF08BD4038024030B5044602
:102120000D4601222946206800F0E2FA0A4920689B
:10213000884201D1012000E0002028B12068406CD5
:1021400040F40040216848642068006840F00100C5
:1021500021680860002030BD0000014000BFFEE79C
:102160001FB51E481E4908604FF4803048600021AA
:102170001B48816001610121816100210162C1620E
:10218000184981620021C1600221C16101210163FE
:102190004161FEF751FE18B1F92113A000F084FB54
:1021A00004200090012001900420029069460C4810
:1021B000FEF778FD20B140F203110BA000F074FB94
:1021C0000220019069460648FEF76CFD20B140F2FE
:1021D0000B1105A000F068FB1FBD000000200140AE
:1021E000540000200100000F2E2E2F5372632F6D1C
:1021F00061696E2E6300000008B500BF00200090EA
:102200000A48006840F480000849086008460068F1
:1022100000F48000009000BF00BF0022114638206B
:10222000FFF7DDF93820FFF7CDF908BD303802405F
:1022300000B587B000BF002001902F48006840F033
:1022400001002D4908600846006800F00100019077
:1022500000BF00BF00BF002001900846006840F0AA
:10226000020008600846006800F00200019000BF0C
:1022700000BF00BF002001900846006840F0040045
:1022800008600846006800F00400019000BF00BF2D
:10229000002240F203311948FFF7EAF800228021BA
:1022A0001748FFF7E5F8002220211648FFF7E0F86D
:1022B00040F203300290012003900020049005902A
:1022C00002A90E48FEF7EAFF802002900120039049
:1022D00000200490059002A90948FEF7DFFF2020A6
:1022E00002900120039000200490059002A9054867
:1022F000FEF7D4FF07B000BD3038024000000240B6
:10230000000802400004024000B589B04FF0804050
:102310001B4908600A2048600021194881604FF479
:102320007A71C16000210161FFF7C6FE20B14FF450
:102330008F7114A000F0B8FA00200790089007A948
:102340000F48FFF714FD20B140F225110DA000F059
:10235000ABFA6020009000200190029004900822C7
:1023600069460748FFF724FE20B14FF4977105A096
:1023700000F09AFA0248FFF701FE09B000BD000024
:10238000FC0000202E2E2F5372632F6D61696E2E7C
:102390006300000000B58BB01A481B49086000209C
:1023A00048600021184881604EF66021C16000211C
:1023B000016103200290022003900120049000207C
:1023C00005900690079001200890002009900A903F
:1023D00002A90D48FFF7FCFC20B14FF4A6710BA039
:1023E00000F062FA00200090019069460648FFF76D
:1023F000BEFC20B140F2531104A000F055FA0BB01E
:1024000000BD000000040040380100202E2E2F5394
:1024100072632F6D61696E2E6300000000B58BB092
:102420001B481C4908600020486000211948816051
:102430004EF66021C160002101610320029002205C
:1024400003900120049000200590052006900220B2
:102450000790012008900020099005200A9002A909
:102460000C48FFF7B5FC20B140F26F110AA000F054
:102470001BFA00200090019069460648FFF777FCA0
:1024800020B14FF4BB7104A000F00EFA0BB000BDF8
:1024900000080040740100202E2E2F5372632F6D10
:1024A00061696E2E6300000000BFFEE77047000008
:1024B00002480068C0F30220704700000CED00E005
:1024C00010B5002807DA0A07140E054A00F00F03BA
:1024D0001B1FD45403E00A07130E024A135410BD05
:1024E00018ED00E000E400E07047704710B5FEF71B
:1024F000CBFFFFF738FCFEF7F3FA10BD10B592B032
:1025000000BF002000902F48006840F080502D4907
:1025100008600846006800F08050009000BF00BFCF
:1025200000BF002000902848006840F44040264941
:1025300008600846006800F44040009000BF00BFFB
:10254000022006900120099010200A9002200C9091
:1025500000210D9110210E91C8210F91022110919F
:102560000421119106A8FFF7ABF918B1C62117A0F5
:1025700000F09AF90F2001900220029000200390B1
:102580004FF48050049000200590032101A8FFF72C
:1025900079F818B1D4210DA000F086F9FFF732F9CF
:1025A0004FF47A71B0FBF1F42046FFF7C2FB042030
:1025B000FFF7AAFB00221146501EFFF710F812B0D9
:1025C00010BD000040380240007000402E2E2F53F6
:1025D00072632F6D61696E2E6300000014480068FD
:1025E00040F47000124908601248006840F0010091
:1025F0001049086000200F49083108600D48006844
:102600000D4908400B4908600C48091D0860081F67
:10261000006820F48020091F0860002005490C3163
:1026200008604FF000600249803908607047000080
:1026300088ED00E000380240FFFFF6FE1030002475
:1026400000220268234B98420BD0B0F1804F08D093
:10265000214B984205D0214B984202D0204B984202
:1026600001D1012300E000231BB122F070024B686E
:102670001A43184B984214D0B0F1804F11D0164B2A
:1026800098420ED0154B98420BD0154B984208D06B
:10269000144B984205D0144B984202D0134B9842E9
:1026A00001D1012300E000231BB122F44072CB686A
:1026B0001A4302608B68C3620B688362054B9842C1
:1026C00001D1012300E000230BB10B690363012357
:1026D00043617047000001400004004000080040D2
:1026E000000C00400040014000440140004801400F
:1026F00030B50023012404FA01F3046A9C43046208
:10270000046A02FA01F52C43046230BD30B500249E
:1027100000220023056A25F001050562026A43686C
:10272000846924F0700424F003040D682C4322F023
:1027300002028D682A430D4DA84201D1012500E017
:1027400000256DB122F00802CD682A4322F0040270
:1027500023F4807323F400734D692B438D692B435D
:10276000436084614D684563026230BD00000140F2
:1027700030B5002400220023056A25F0100505620B
:10278000026A4368846924F4E04424F440740D68C8
:1027900044EA052422F020028D6842EA05120F4D1A
:1027A000A84201D1012500E0002585B122F0800278
:1027B000CD6842EA051222F0400223F4806323F43C
:1027C00000634D6943EA85038D6943EA85034360ED
:1027D00084614D688563026230BD000000000140E5
:1027E00030B5002400220023056A25F480750562B7
:1027F000026A4368C46924F0700424F003040D687D
:102800002C4322F400728D6842EA05220E4DA84244
:1028100001D1012500E0002585B122F40062CD68D8
:1028200042EA052222F4806223F4805323F4005309
:102830004D6943EA05138D6943EA05134360C4619A
:102840004D68C563026230BD0000014030B5002212
:1028500000230024056A25F480550562036A446854
:10286000C26922F4E04222F440720D6842EA052275
:1028700023F400538D6843EA0533094DA84201D182
:10288000012500E0002525B124F480444D6944EA87
:1028900085144460C2614D680564036230BD000068
:1028A0000000014000BFFEE700BFFEE703B401984F
:1028B0004100009850EAC12018BF04204A0D18BFFB
:1028C00040F0010040F2FF72B2EB515F08BF40F0F0
:1028D0000200012808BF052002B070470000000078
:1028E00010B52F499FED2C1B2DED020B84B00598E0
:1028F00020F000408842D8BF9DED040B2DDD294912
:10290000884209D1049840B94FF0010001F054FB0E
:1029100001F012FB06B010BD05DB9DED040B01F0CC
:10292000F7FA06B010BD68469DED040B00F0F0FE0E
:1029300010F0030004BF9DED021B9DED000B0CD0B9
:1029400001280ED09DED021B9DED000B022817D033
:10295000012001F02DFA06B010BD01F0F5F806B027
:1029600010BD9DED021B9DED000B012001F020FA32
:1029700051EC100B81F0004106B041EC100B10BD82
:1029800001F0E2F851EC100B81F0004106B041EC8F
:10299000100B10BD0000000000000000000000004F
:1029A000FB21E93F0000F07F2DED020B019820F0A4
:1029B000004001909DED000B02B0704710B52DED69
:1029C000040B86B09DED060B10EE100A10EE901A67
:1029D0008DED000B002818BF0120084320F00040B7
:1029E000C0F17F6000F1E040C00F21D19DED080BE8
:1029F00010EE101A10EE900A8DED000B002918BF92
:102A00000121084320F00040C0F17F6000F1E04068
:102A1000C00F0DD129490798B1EB400F04BF0698AC
:102A2000002842D00998400004BF089800283CD0F4
:102A30009DED080B53EC102B9DED060B51EC100B8C
:102A4000FDF7EAFECDE902019DED020B40F2FF71B8
:102A500010EE900A8DED000B31EA105021D007984E
:102A6000039900F0004001F00041884219D09DED2B
:102A7000080B8DED040B9DED020B8DED000B10EEA0
:102A8000900A059961F31E0005909DED041B9DEDD4
:102A9000020B51EC110B53EC102BFDF76EFCCDE942
:102AA00002019DED020B0AB010BD012001F084FA75
:102AB0000AB0BDE8104001F03FBA00000000E0FF9E
:102AC0002DE9F04D2DED040B2DED0E8B96B0DDE9CB
:102AD0002550279CDDF890A025F0004624F0004802
:102AE000BAF1000F14BF0121002101EB4502FC499E
:102AF00053184A1093422AD3002814BF01230023FD
:102B000003EB44030B44F7498B4220D358EA0001FE
:102B10009FEDF59B76D0DFF8D8B35D4503D1BAF1D0
:102B2000000F05D188E0BAF1000F08BF002100D0E6
:102B3000012101EB450111F5001F08D8002814BF41
:102B40000121002101EB440111F5001F0BD99DED7E
:102B5000261B9DED240B16B0BDEC0E8B04B0BDE81A
:102B6000F04D01F0DFB90027002DBCBFE1498845D9
:102B700021DAE1498845A8BF02271CDAC3451ADCDF
:102B8000DE4901EB2851142908DDC1F1340220FA95
:102B900002F101FA02F282420DD108E058B9C1F106
:102BA000140228FA02F101FA02F2424503D101F0BF
:102BB0000101C1F1020756EA0A0124D1002C22DAF0
:102BC000002D18BF022F01D0012F0AD0022001F0E2
:102BD000F3F916B0BDEC0E8B04B0BDE8F04D01F07A
:102BE0007FB9022001F0E8F901F07AF951EC100BFD
:102BF00081F0004141EC100B16B0BDEC0E8B04B01F
:102C0000BDE8F08D18E09FEDBEAB9FEDBF8B0028B7
:102C100071D1B848804522D105F1804010F580106F
:102C200008BFBAF1000F07D0B3450ADC002CA8BFDB
:102C30009DED260BE0DA0DE0B0EE490AF0EE690AF0
:102C4000DAE7002C06DA9DED260B51EC100B81F033
:102C500000416FE0AE48784490ED000BCCE7D845DA
:102C60004DD1002C48DA2EB186423AD1BAF1000F8C
:102C700042D126E0BAF1000F13D0022001F09CF9F6
:102C800001F06AF98DED020B9DED240B8DED000B2B
:102C900010EE900A039961F31E0003909DED020B64
:102CA000AAE78DED02AB9DED240B1AEE901A10EE03
:102CB000900A8DED000B61F31E0003909DED020B59
:102CC0009AE78DED028B9DED240B18EE901A10EE15
:102CD000900A8DED000B61F31E0003909DED020B39
:102CE0008AE709DA9DED240B51EC190B53EC102BFC
:102CF000FDF7B8FB1EE020E09DED240B7CE786424B
:102D00001BDAB4F1804F0DD0A4F10050B0F1FF50A8
:102D100013D1002D11DB9DED240B51EC100B01F0B4
:102D200035FE07E09DED240B53EC102B51EC100BFE
:102D300000F0C2BC41EC100B5EE79DED240B51ECA2
:102D4000100B01F03FF9BAF1000FCDE90E0142D1AD
:102D50009FED710B46B3A6F1E040B0F17F600CD05F
:102D60005E4538D1002D00DAA7B3022F0CBF012039
:102D70004FF0FF30FDF7E5FBDCE7002D01DD002C17
:102D80000DDA002D01DD002C1FDB002D16DA002CE2
:102D900014DB012F08BF9FED620B3FF42DAFB0EEA7
:102DA0004A0AF0EE6A0A27E7022F18BF002D0CD05E
:102DB000012F0AD1002DFFF61FAF06E0002DB8BF8E
:102DC000002C08DA012F3FF417AFB0EE480AF0EEFE
:102DD000680A11E71BE0012000EBE57050EA0701EB
:102DE00015D0791EB0EE498AF0EE698A084308BF13
:102DF0009FED4D8B4E480025804570DD4D494E4876
:102E0000884514DDB0420DDB002C19DB2FE00120DA
:102E100001F0D2F816B0BDEC0E8B04B0BDE8F04D59
:102E200001F08AB8B34502DC002C09DC1FE08642C1
:102E300002DA002C1BDA03E05E452BDD002C16DDE8
:102E4000022001F0B9F801F087F88DED020B53EC88
:102E50001A2B51EC180BFDF793FACDE900010399F9
:102E6000019861F31E0003909DED020BC4E6022061
:102E700001F0A2F801F080F810EE901A18EE900A16
:102E80008DED020B8DED008B61F31E0003909DED27
:102E9000020BB1E69DED0E0B53EC192B51EC100B10
:102EA000FDF768FA9FED260BCDE9080153EC102BD6
:102EB0009DED080B51EC100BFDF762FA9FED221B04
:102EC00053EC112BFDF759FA9DED081B53EC112B18
:102ED000FDF756FA9FED1E1B53EC112B3CE08CE0E6
:102EE000FFFF1F00FFFF0F00000000000000F03F89
:102EF0000000F03F0000F07F0000404301FCFFFFB6
:102F0000000000000000F07F000000000000000052
:102F1000861E00000000000000000000000000808D
:102F2000000000000000F0FF000000000000F0BF03
:102F30000000E0410000F043FFFFEF3F0000000011
:102F4000000000000000D03F555555555555D53F60
:102F5000000000000000E03FFDF70FFA9DED080BB8
:102F600041EC1A0B53EC102B51EC100BFDF708FA47
:102F700053EC1A2BFDF704FA41EC1A0B9FEDFE0BF4
:102F800053EC102B9DED080B51EC100BFDF7F8F9ED
:102F900041EC1B0B9FEDFA0B51EC1A0B53EC102B71
:102FA000FDF7EEF941EC1A0B9FEDF70B53EC102BEC
:102FB0009DED080B51EC100BFDF7E2F953EC1A2BC9
:102FC000FDF7D8F941EC1A0B51EC1B0B53EC1A2B03
:102FD000FDF72FF90690CDE906519DED060B53EC58
:102FE0001B2B51EC100BFDF7C5F953EC1A2BFDF719
:102FF000C4F941EC100B00F0A1B90020B6F5801F18
:103000000EDA9FEDE30B53EC102B9DED0E0B51EC04
:10301000100BFDF7B5F9CDE90E016FF034000E4647
:1030200000EB2650A0F2FF37C6F31300DA4940F058
:103030007F6646F040568842D8BF002408DDD74955
:103040008142C8BF012403DC0024A6F580167F1C42
:10305000D348784400EBC4000F9690ED00CB9DED73
:103060000E0B53EC1C2B51EC100BFDF783F99DED6F
:103070000E0B41EC1B0B53EC1C2B51EC100BFDF712
:10308000D8F841EC100B51EC190B53EC102BFDF759
:10309000E9F941EC1D0B51EC1B0B53EC1D2BFDF71B
:1030A0006FF941EC1A0BBF488DED10AB78441095C9
:1030B00090ED000B4FF0005040EA660000EB8440BA
:1030C0008DED080B00F5002009909DED080B53ECE9
:1030D0001C2B51EC100BFDF74DF99DED0E1B53EC25
:1030E000112BFDF74AF941EC100B53EC102B9DED21
:1030F000100B51EC100BFDF743F99DED080B41EC63
:103100001C0B53EC102B9DED100B51EC100BFDF72D
:1031100037F953EC1B2BFDF730F953EC1C2BFDF763
:1031200029F953EC1D2BFDF72BF941EC1C0B53EC4B
:103130001A2B51EC1A0BFDF723F941EC1B0B9A48A3
:103140000621B0EE4B0AF0EE6B0A784400F0B4FDB5
:10315000B0EE401AF0EE601AB0EE41DAF0EE61DA4D
:1031600053EC1B2B51EC1B0BFDF70AF953EC1D2BF9
:10317000FDF706F99DED100B41EC1B0B53EC1A2BE0
:1031800051EC100BFDF755F853EC1C2BFDF7F8F83C
:1031900053EC1B2BFDF74DF89DED100B41EC1B0B79
:1031A00053EC102B51EC100BFDF7EAF841EC1D0B22
:1031B0009FED7FEB53EC1E2BFDF73BF853EC1B2BE5
:1031C000FDF737F80890CDE908519DED080B53EC59
:1031D0001E2B51EC100BFDF7CDF853EC1D2BFDF71A
:1031E000C9F853EC1B2BFDF7C8F89DED080B41EC1B
:1031F0001D0B53EC102B9DED100B51EC100BFDF73C
:10320000BFF841EC1B0B53EC1A2B51EC1D0BFDF7D7
:10321000B7F89DED080B41EC1A0B53EC102B51EC59
:103220001C0BFDF7ADF853EC1A2BFDF702F841EC3F
:103230001A0B51EC1B0B53EC1A2BFCF7FAFF0C90FA
:10324000CDE90C519DED0C0B53EC1B2B51EC100BED
:10325000FDF790F853EC1A2BFDF78FF841EC1B0BA0
:103260009FED550B53EC102B9DED0C0B51EC100BFF
:10327000FDF786F841EC1A0B9FED510B51EC1B0B3F
:1032800053EC102BFDF77CF841EC1B0B9FED4E0B24
:1032900053EC102B9DED0C0B51EC100BFDF770F85F
:1032A00053EC1B2BFCF7C5FF41EC100B484878444E
:1032B00000EBC40090ED001B51EC100B53EC112BF4
:1032C000FCF7B7FF41EC1B0B3846FDF73AF9CDE9A7
:1032D000080153EC1B2B51EC1A0BFCF7AAFF41EC35
:1032E000100B3C48784400EBC40090ED00CB51EC4F
:1032F000100B53EC1C2BFCF79CFF9DED081B53ECB3
:10330000112BFCF796FF0690CDE906519DED080BB9
:1033100053EC102B9DED060B51EC100BFDF72AF82A
:1033200053EC1C2BFDF726F853EC1A2BFDF722F873
:1033300053EC1B2BFDF721F841EC100B9DED261BE8
:1033400053EC102B8DED001B00959DED260B51ECE1
:10335000100BFDF715F89DED000B41EC1A0B53EC2B
:10336000102B9DED260B51EC100BFDF703F89DED96
:10337000061B53EC112B2FE0000000604715F73FB0
:10338000FE822B654715F73F44DF5DF80BAE543ED8
:1033900000000000000040438E9803007AB60B0046
:1033A000D2190000301A00000A19000000000000C5
:1033B0000000000000000840000000E009C7EE3FE8
:1033C000FD033ADC09C7EE3FF5015B14E02F3EBE7A
:1033D0009617000050170000FCF7D2FF53EC1A2B91
:1033E000FCF727FF9DED060B41EC1A0B53EC102B5D
:1033F0009DED000B51EC100BFCF7C2FFCDE90C0169
:103400009DED0C0B51EC1A0B53EC102BFCF711FF3C
:10341000CDE902010C46AA498C422FDB611A084310
:1034200018D19DED0C0B53EC102B9DED020B51ECC4
:10343000100BFCF79FFF41EC1B0B9FEDA30B51EC16
:103440001A0B53EC102BFCF7F4FE53EC1B2BFDF77F
:10345000D3F82DD2022000F0AFFD00F07DFD10EE7C
:10346000901A18EE900A8DED020B8DED008B61F332
:103470001E0003909DED020BFFF7BEBB944A24F0A3
:103480000041914214D39349214408437FF4EFACA7
:103490009DED0C0B53EC102B9DED020B51EC100B22
:1034A000FCF768FF53EC1A2BFDF7A6F87FF6DFACAC
:1034B00024F000408849894A002601EB20518242CD
:1034C0002BDA481C4FF4801121FA00F02044844A82
:1034D000C0F30A517A44A1F2FF3192ED000B814A08
:1034E0008DED080BCA4020EA0202C0F3130040F43D
:1034F0008010C1F1140120FA01F60992002CB8BF26
:1035000076429DED080B53EC102B9DED0C0B51EC0E
:10351000100BFCF72FFFCDE90C019DED0C0B51ECCE
:103520001A0B53EC102BFCF784FE9FED6F0B0890E9
:10353000CDE9085153EC102B9DED080B51EC100B0D
:10354000FCF71EFF41EC1B0B9FED690B53EC102B9E
:103550009DED080B51EC100BFCF712FF9DED0C0BD1
:1035600041EC1C0B53EC102B9DED080B51EC100B98
:10357000FCF700FF53EC1A2BFCF7FFFE9FED5E1BE0
:1035800053EC112BFCF7FCFE53EC1C2BFCF751FE0B
:1035900041EC1A0B51EC1B0B53EC1A2BFCF749FEB8
:1035A000CDE902019DED020B53EC1B2B51EC100BEE
:1035B000FCF7E0FE53EC1A2BFCF7DFFE9DED020B4F
:1035C00041EC1A0B53EC102B51EC100BFCF7D8FE0E
:1035D000CDE908014A489DED080B0521784400F02B
:1035E0006BFB9DED081B51EC100B53EC112BFCF702
:1035F000C7FE9DED021B53EC112BFCF7BEFECDE97F
:1036000006019DED020B53EC1A2B51EC100BFCF74D
:10361000B7FE53EC1A2BFCF70CFE9FED3B0B41EC75
:103620001A0B53EC102B9DED060B51EC100BFCF715
:10363000A1FE9DED060B41EC1B0B53EC102B9DEDF9
:10364000020B51EC100BFCF79BFE53EC1B2BFCF711
:1036500009FF53EC1A2BFCF78DFE9DED021B53EC7A
:10366000112BFCF787FE53EC192BFCF786FECDE9F6
:10367000020101EB065001150029C8BF039015DCBB
:103680009DED020B324651EC100BFDF7AEF8FFF743
:103690000DF9042808BF00F06FFC32469DED020BC7
:1036A00051EC100BFDF7A1F8CDE902019DED020BE5
:1036B00051EC180B53EC102BFCF762FEFFF73ABBF2
:1036C0000000904000000000FE822B654715973CEB
:1036D00000CC904000346F3F01FCFFFF0000E03F52
:1036E00008160000FFFF0F0000000000432EE63F19
:1036F000396CA80C615C20BEEF39FAFE422EE63F21
:10370000A8140000000000000000000000000040BD
:103710002DE9F14F04462DED020B2DED088B8AB0FB
:103720009FEDE70B80ED020B139EE74826F0004566
:1037300085420ADC9DED120B002084ED000B0AB0DF
:10374000BDEC088B03B0BDE8F08FE0489FEDE0AB27
:103750009FEDE1BBA84247DDE14F9FEDE39B9FED6D
:10376000E48B9DED120B53EC1A2B51EC100B002E39
:103770001CDDFCF7FFFD41EC100BBD4208D053EC03
:103780001B2B51EC100BFCF7F5FDC4E900010BE01D
:1037900053EC192B51EC100BFCF7ECFD53EC182BF0
:1037A000FCF7E8FDC4E900010120C8E7FCF741FD92
:1037B00041EC100BBD4208D053EC1B2B51EC100B0D
:1037C000FCF737FDC4E900010BE053EC192B51EC79
:1037D000100BFCF72EFD53EC182BFCF72AFDC4E967
:1037E00000014FF0FF30AAE7C348A84279DB9DED06
:1037F000120B51EC100B00F0E5FB41EC180B9FEDA8
:10380000C00B53EC102BFCF7BBFD9FEDBF1B53EC23
:10381000112BFCF70EFDFCF7A5FE0746FCF791FE09
:1038200041EC190B53EC1A2BFCF7AAFD53EC182BA7
:10383000FCF7A3FD41EC180B53EC1B2B51EC190BBF
:10384000FCF79EFDDFF8C8A241EC100B4FEA1558BB
:103850000125FA4453EC102B51EC180BFCF78AFDB0
:10386000032DC4E900013DD0C1F30A5005EB451119
:10387000A8EB00001139814234DA0AEB051BB0EEE7
:1038800048AA9BED000BF0EE68AA53EC102B51EC0C
:10389000190BFCF775FD41EC1B0B51EC1A0B53ECAB
:1038A0001B2BFCF767FD41EC180B51EC1A0B53EC8A
:1038B000182BFCF75FFD53EC1B2BFCF75BFD9BED1E
:1038C000020B41EC1A0B53EC102B51EC190BFCF7CB
:1038D00057FD53EC1A2BFCF74DFD41EC100B6D1C02
:1038E000B8E70EE0002EA8BF3846BFF628AF94ED2B
:1038F000000B51EC100B81F00041C4E9000178424B
:103900001DE7C6F3130040F4801EC6F30A50A0F270
:10391000F530471100F01F05C5F12000DDF848B073
:1039200008900020069007900520EC467949002D6C
:1039300007EB0002794408BF51F8221009D051F872
:10394000223001EB8201AB404A68089922FA01F16A
:103950001943A1FB0E26A1FB0B131A449A4234BF54
:103960000123002303EB06080CEB8003D3E901A637
:103970000E448E4234BF0121002192448A4411B189
:10398000924502D903E0924501D2012100E00021D5
:10399000C3E901A641444CF82010011EA0F101002A
:1039A000C4DC029800F10050850F0298DDE903673E
:1039B0008000DDF81480FCF7C4FD41EC1A0B3046A2
:1039C000FCF7D1FF9FED541B53EC112BFCF7D8FCF7
:1039D00041EC1B0B3846FCF7C6FF9FED511B53EC27
:1039E000112BFCF7CDFC41EC180B4046FCF7BBFF5C
:1039F0009FED4D1B53EC112BFCF7C2FC41EC190B56
:103A000051EC180B53EC192BFCF713FC53EC1B2B4C
:103A1000FCF70FFC53EC1A2BFCF70BFCCDE908016B
:103A2000002008909DED080B53EC1A2B51EC100B65
:103A3000FCF7A0FC53EC1B2BFCF79CFC53EC182B65
:103A4000FCF798FC53EC192BFCF797FC9FED381B07
:103A500053EC112BFCF794FC9FED370B41EC180B4A
:103A600053EC102B9DED080B51EC100BFCF788FC70
:103A700053EC182BFCF7DDFB9FED310B41EC180BE1
:103A800053EC102B9DED080B51EC100BFCF778FC60
:103A900053EC182BFCF7CDFB41EC100B139810F0F6
:103AA000004F06D06D4251EC100B81F0004141EC0B
:103AB000100B284684ED000B41E6000000000000DA
:103AC0000000000000000000FB21E93F7CD902401B
:103AD00000004054FB21F93F3163621A61B4D03DCC
:103AE000FB21F93F000000000000601A61B4D03DE6
:103AF0007370032E8A19A33BFB213941000000009B
:103B000083C8C96D305FE43F000000000000E03F63
:103B100092120000E0110000000000000000103EC2
:103B2000000000000000103C000000000000103AFF
:103B3000182D4454FB21F93D3326A611460B113CA8
:103B400000000054FB21F93D10B52DED040B2DEDC7
:103B5000088B82B0B0EE419AF0EE619A0B9820F09B
:103B600000449FED4BABB4F1795F11DA9DED0A0B88
:103B700051EC100BFCF7F6FC002801BFB0EE4A0A2E
:103B8000F0EE6A0A02B0BDEC088B04BF04B010BDB1
:103B90009DED0A0B53EC102B51EC100BFCF7F0FBD6
:103BA00041EC180B3C480621B0EE480AF0EE680ADA
:103BB000784400F081F853EC182B51EC100BFCF713
:103BC000DFFB9DED0A0B41EC1B0B53EC192B51EC69
:103BD000100BFCF7D5FB41EC190B53EC1B2B51ECF4
:103BE000180BFCF7CDFB53EC192BFCF7C3FB9FED37
:103BF0002C0B41EC190B53EC102B51EC180BFCF770
:103C0000BFFB41EC100B2848844210DA53EC192B0F
:103C100051EC100BFCF7AEFB53EC1A2BFCF7ADFB91
:103C200041EC100B02B0BDEC088B04B010BD1F4876
:103C3000A042BCBF9FED1E1B8DED001B06DBA4F553
:103C400000100190002000909DED001B51EC100B26
:103C500053EC112BFCF78EFB9DED000B41EC180B88
:103C600053EC102B51EC1A0BFCF784FB41EC1A0BB4
:103C700053EC192B51EC180BFCF77CFB53EC1A2B73
:103C8000FCF77BFB41EC100BCCE7000000000000D0
:103C9000000000000000F03FFC0E000000000000EB
:103CA000000000000000E03F3333D33F0000E93F55
:103CB000000000000000D23F70B504462DED028BDD
:103CC0004D1E00EBC500B0EE408AF0EE608A90ED2C
:103CD000000B35F0060017D053EC182B51EC100BED
:103CE000FCF74EFB41EC100B6D1E04EBC50090ED94
:103CF000001B51EC100B53EC112BFCF79AFA41EC22
:103D0000100B35F00600E7D1022D36D0042D1CD063
:103D1000062D1CBFBDEC028B70BD53EC182B51EC73
:103D2000100BFCF72DFB94ED0A1B53EC112BFCF749
:103D300080FA53EC182BFCF723FB94ED081B53EC93
:103D4000112BFCF776FA41EC100B53EC182B51ECCD
:103D5000100BFCF715FB94ED061B53EC112BFCF735
:103D600068FA53EC182BFCF70BFB94ED040B53ECA7
:103D7000102BFCF75EFA41EC100B53EC182B51ECB6
:103D8000100BFCF7FDFA94ED021B53EC112BFCF722
:103D900050FA53EC182BFCF7F3FA94ED001B53EC9C
:103DA000112BFCF746FABDEC028B41EC100B70BDF9
:103DB00031B504462DED040B2DED0A8BB0EE41BA62
:103DC000F0EE61BA0B989DED0A0B20F00040B0F1C7
:103DD000795F0DDA51EC100BFEF768FD042808BF7F
:103DE00000F0CAF89DED0A0BBDEC0A8B05B030BDA2
:103DF00053EC102B51EC100BFCF7C2FA41EC180BF2
:103E00009DED0A0B53EC182B51EC100BFCF7B8FA94
:103E100041EC190B2C48B0EE480AF0EE680A052177
:103E20007844FFF749FF9FED2ACBB0EE40AAF0EEB1
:103E300060AA9CB353EC1C2B51EC190BFCF7A0FAB5
:103E400041EC1C0B53EC1A2B51EC190BFCF798FAB4
:103E50009FED210B41EC190B53EC102B51EC1B0B7C
:103E6000FCF78EFA53EC192BFCF784FA53EC182B61
:103E7000FCF786FA53EC1B2BFCF77CFA53EC1C2B5B
:103E8000FCF778FA9DED0A1B53EC112BFCF775FA41
:103E9000BDEC0A8B05B041EC100B30BDFFE753ECD5
:103EA0001A2B51EC180BFCF76BFA53EC1C2BFCF79C
:103EB000C0F953EC192BFCF763FA9DED0A1B53EC88
:103EC000112BFCF7B6F9E3E78C0D000000000000B1
:103ED000495555555555C5BF000000000000E03F4D
:103EE0009FED070B10B553EC102B9FED070B51EC1A
:103EF000100BFCF7B7FA41EC100B10BD00000000EE
:103F00000000000000000000000000000000F03F82
:103F100010B553EC102B51EC100BFCF78AF941EC67
:103F2000100B10BD10B553EC112B51EC100BFCF71E
:103F300080F941EC100B10BD9FED050B10B553EC53
:103F4000102B51EC100BFCF78DFA41EC100B10BD4F
:103F500000000000000000009FED050B10B553ECC1
:103F6000102B51EC100BFCF70BFA41EC100B10BDB1
:103F700000000000000000709FED050B10B553EC31
:103F8000102B51EC100BFCF7FBF941EC100B10BDA2
:103F9000000000000000001002E008C8121F08C165
:103FA000002AFAD170477047002001E001C1121FBA
:103FB000002AFBD1704700000149086070470000EB
:103FC0005000002082B0CDE9000121F000400190B6
:103FD0009DED000B02B051EC100B7047FDF760FA3D
:103FE000FEF78CFAFEF724F9FEF706F9FEF78CF9D6
:103FF000FEF7B6F8FEF712FAFEF7CCF918210648DC
:10400000FDF794FF18210548FDF790FF08210448AB
:10401000FEF784F800BFFEE774010020380100209D
:10402000FC00002010B50446201E01DB014600E024
:104030004142B1F57A7F06DD002C02DD4FF47A7043
:1040400000E01A4804464CB9002202211848FDF746
:104050000FFA002117480068C16310BD0122022138
:104060001348FDF705FA002C0ADD002280211248D2
:10407000FDF7FEF9012220211048FDF7F9F90BE0C8
:10408000002C09DA002220210C48FDF7F1F9012269
:1040900080210948FDF7ECF9201E01DB014600E014
:1040A0004142044A1268D16300BFD6E718FCFFFF03
:1040B00000000240FC000020000802400004024012
:1040C00030B52DED108B85B0FDF7D8F900EE100A54
:1040D000B8EE400A9948D0ED000A30EE600A10EEC2
:1040E000105A2846FCF75DFA41EC1A0B9FED940B31
:1040F00053EC102BFCF744F941EC190BFCF794FA44
:104100008E4908609048046890480068201A00EEC4
:10411000100AB8EEC00AB0EE408A18EE100AFCF79A
:1041200040FA41EC1A0BB0EE4A0AF0EE6A0AFEF7CA
:104130003BFCB0EE409AF0EE609A9FED850B53EC9D
:10414000102B51EC190BFCF757FA46D27F48006848
:10415000844221DD7D480068FCF7F3F941EC1B0B3C
:104160002046FCF7EEF941EC1D0B9FED7B0B53EC69
:10417000102BFCF702F941EC1C0B53EC1B2BFCF74A
:1041800058F841EC1A0B81F0004141EC190BFCF797
:104190004BFA08EE100A20E06C48006884421CDAF2
:1041A0002046FCF7CEF941EC1A0B68480068FCF792
:1041B000C8F941EC1C0B9FED680B53EC102BFCF77E
:1041C000DCF841EC1B0B53EC1A2BFCF732F841ECFA
:1041D000190BFCF729FA08EE100A61480068FCF791
:1041E000B0F941EC1A0B55480068FCF7DAF941ECDC
:1041F0001F0B9FED5C0B53EC102BFCF71AF841ECF6
:104200001D0B4E480068FCF7CCF941EC1E0B53EC3B
:104210001D2BFCF727F941EC1C0B9FED540B53ECC5
:10422000102BFCF7AAF841EC1B0B53EC1A2BFCF7F4
:10423000A7F841EC190B18EE100AFCF7B2F941ECA3
:104240001A0B3E480068FCF7ACF941EC1E0B9FEDE1
:10425000450B53EC102BFBF7ECFF41EC1C0B3748E4
:104260000068FCF79EF941EC1D0B53EC1C2BFCF78E
:10427000F9F841EC1B0B53EC1A2BFCF781F853ECCB
:10428000192BCDE900019DED000B51EC100BFBF754
:10429000D0FFCDE902019DED020B51EC100BFCF7B4
:1042A000C3F908EE100ABDEEC80A2D4880ED000AD9
:1042B000304890ED000AB8EEC00A30EE080ABDEEB4
:1042C000C00A80ED000A204800682049086029489B
:1042D0000068FCF736F941EC1A0B9FED270B53EC05
:1042E000102BFCF74DF841EC190BFCF79DF9244914
:1042F0000860124890ED000AC8EE000A10EE905ACD
:104300002846FCF74EF941EC1A0B9FED1B0B53ECC2
:10431000102BFCF735F841EC190BFCF785F918491F
:104320004860FDF7ABF800EE100AB8EE400A03480B
:1043300080ED000A05B0BDEC108B30BD3C000020C4
:10434000FCA9F1D24D62503F24040040300000200F
:1043500000000000006AE84000000000004CED4052
:10436000380000209A9999999999A93F0000000076
:104370000000F03F3400002055F29C762F1BD43F04
:104380002800002000B52DED028B83B0244A07CA17
:104390008DE807009DED000A2248D0ED000A20EECE
:1043A000200ADDED010A90ED011A00EE810ADDED33
:1043B000020A1D4890ED011A00EE810AB0EE408A13
:1043C0009FED1A0A28EE000AF3EE020A80EE201A88
:1043D000B0EE418ABDEEC80A10EE100A002801DBDB
:1043E000014600E04142B1F57A7F0EDDB5EEC08AAC
:1043F000F1EE10FA02DD4FF47A7000E00C4800EEA6
:10440000100AB8EEC00AB0EE408ABDEEC80A10EE3F
:10441000100AFFF707FE03B0BDEC028B00BD0000E1
:104420001C4A0008B00100202800002000007A4447
:1044300018FCFFFF10B52DED108B8B4890ED000A96
:1044400010EE101A0846FCF7ACF841EC190BB0EE70
:10445000490AF0EE690AFEF7A7FAB0EE408AF0EEDC
:10446000608A9FED820B53EC102B51EC180BFCF77C
:10447000C3F87DD87C4991ED010AB5EEC00AF1EE92
:1044800010FA02D24FF0FF310AE0774991ED010AAC
:10449000B5EEC00AF1EE10FA01DD012100E00021C5
:1044A00049424FF47A7201FB02F0FFF7BBFD6E4800
:1044B00090ED010A10EE101A0846FCF772F841EC74
:1044C0001C0B9FED6C1BB0EE4C0AF0EE6C0AFEF775
:1044D000F7FAB0EE40AAF0EE60AA9FED661B9FEDE2
:1044E000670BFEF7EDFAB0EE40EAF0EE60EA9FED02
:1044F000650B53EC102B51EC1E0BFBF741FF9FEDAE
:10450000630B53EC102BFBF794FE9FED620B53EC07
:10451000102BFBF735FF53EC1A2BFBF731FFFCF7A1
:1045200083F808EE900A504890ED000A10EE101A39
:104530000846FCF736F841EC1C0BB0EE4C0AF0EEE6
:104540006C0AFEF7CDF9B0EE40BAF0EE60BA9FED1E
:10455000530B53EC102B51EC1B0BFBF76AFE9FED3A
:10456000510B53EC102BFBF70BFFFCF75DF800E051
:1045700077E00FEE100A9FED4D0A3B4880ED030AED
:1045800038EE8F0A80ED020A90ED020A10EE101A42
:104590000846FCF706F841EC190B334890ED030A86
:1045A00010EE101A0846FBF7FCFF9FED3C0B53EC96
:1045B000102BFBF7E5FE53EC192BFCF71DF802D28C
:1045C000B7EE008A25E0284890ED020A10EE101A96
:1045D0000846FBF7E6FF41EC190B234890ED030A70
:1045E00010EE101A0846FBF7DCFF41EC1B0B9FEDA9
:1045F000300B53EC102BFBF7C3FE41EC1A0B53ECC2
:10460000192BFBF7F9FF02D29FED2B8A01E0BFEED9
:10461000008A154991ED010AB5EEC00AF1EE10FAD3
:1046200002D24FF0FF310AE00F4991ED010AB5EED9
:10463000C00AF1EE10FA01DD012100E0002149423B
:1046400000EE101AB8EEC00A20EE080ADFED1B0AD1
:1046500020EE200ABDEEC00A10EE100AFFF7E2FCC1
:1046600000BFBDEC108B10BDB001002055F29C7650
:104670002F1BD43F0000000000000040295C8FC2C7
:10468000F528BC3F6891ED7C3F35CE3FD8CF6E2EEC
:104690006FE7523F000000000000E03F0000000014
:1046A0000000F03FAA735655794CD03FCB63023FD0
:1046B0009A9999999999F13F0000000000007A4475
:1046C00070B52DED0C8BFCF7D9FE00EE100AB8EE9C
:1046D000400A9A48D0ED000A30EE600A10EE106AE7
:1046E0003046FBF75EFF41EC190B9FED950B53EC49
:1046F000102BFBF745FE41EC180BFBF795FF8F499C
:10470000086091480568914800682C1A261E01DB54
:10471000314600E071420846FBF713FF41EC180BED
:104720009FED8B0B53EC102BFBF766FF44D28748B1
:104730000068854220DD85480068FBF702FF41ECF8
:104740001A0B2846FBF7FDFE41EC1C0B9FED820B7C
:1047500053EC102BFBF711FE41EC1B0B53EC1A2B07
:10476000FBF767FD41EC190B81F0004141EC180BA0
:10477000FBF7F8FE04461FE07448006885421BDA28
:104780002846FBF7DEFE41EC190B70480068FBF78A
:10479000D8FE41EC1B0B9FED700B53EC102BFBF77D
:1047A000ECFD41EC1A0B53EC192BFBF742FD41ECED
:1047B000180BFBF7D7FE0446694804606948006897
:1047C000204468490860604800686049086065489E
:1047D0000068FBF7B6FE41EC1A0B9FED630B53EC40
:1047E000102BFBF7CDFD41EC190B9FED610B53EC4A
:1047F000102BFBF7BFFD41EC180B9FED5F0B53EC4B
:10480000102BFBF7F9FE38D256480068FBF799FEEB
:1048100041EC1D0B9FED540B53EC102BFBF7B0FD3F
:1048200041EC1C0B9FED520B53EC102BFBF7A2FD40
:1048300041EC1B0B9FED4E0B53EC102BFBF7F9FCDF
:1048400041EC1A0B9FED4E1BB0EE4A0AF0EE6A0ADD
:10485000FEF7B4F8B0EE409AF0EE609A9FED440B8C
:1048600053EC102B51EC190BFBF784FD41EC180BAA
:10487000FBF7DAFE4449086037E03A480068FBF786
:1048800060FE41EC1D0B9FED380B53EC102BFBF73A
:1048900077FD41EC1C0B9FED360B53EC102BFBF717
:1048A00069FD41EC1B0B9FED320B53EC102BFBF71A
:1048B00061FD41EC1A0B9FED321BB0EE4A0AF0EE9F
:1048C0006A0AFEF77BF8B0EE409AF0EE609A9FED30
:1048D000280B53EC102B51EC190BFBF7AAFC41EC05
:1048E000180BFBF7A1FE2849086000EE104AB8EE4D
:1048F000C00A1248D0ED000A80EE201A11EE106AAC
:104900003046FBF74EFE41EC180B9FED170B53ECB6
:10491000102BFBF735FD41EC190BFBF785FE1A490F
:104920004860FCF7ABFD00EE100AB8EE400A034801
:1049300080ED000ABDEC0C8B70BD00004C00002027
:10494000FCA9F1D24D62503F2408004040000020F5
:1049500000000000006AE84000000000004CED404C
:104960004800002044000020058BC9C25472653FF6
:10497000EA2E4454FB210940000000000000000022
:10498000EA2E4454FB211940B001002000B52DED62
:10499000048B83B041EC190BFBF794FF41EC180B2F
:1049A00018EE100A18EE901A8DED008B002818BF33
:1049B0000120084320F00040C0F17F6000F1E0409A
:1049C000C00F14D019EE101A19EE900A8DED009B4D
:1049D000002918BF0121084320F00040C0F17F608A
:1049E00000F1E040C00F04BF0120FFF7E5FA51ECF1
:1049F000180B03B0BDEC048B00BD000610160006BA
:104A00001016000000000000000001020304060769
:104A1000080900000000010203040000AB0EA543DA
:104A2000228E0C429B204A3E000000000000F03F16
:104A3000000000000000F83F00000000000000003F
:104A40000000004003B8E23F00000000000000004A
:104A500006D0CF43EBFD4C3E033333333333E33FD8
:104A6000FFAB6FDBB66DDB3F4D268F515555D53F04
:104A700001411DA96074D13F65DBC9934A86CD3FD2
:104A8000EF4E454A287ECA3F3E5555555555C53FC0
:104A900093BDBE166CC166BF2CDE25AF6A56113FB2
:104AA000F16BD2C541BDBBBED0A4BE726937663EB4
:104AB0004C5555555555A53F7751C1166CC156BF3C
:104AC0009015CB19A001FA3EAD529C804F7E92BE4C
:104AD000C4B1B4BD9EEE213ED43888BEE9FAA8BD6B
:104AE000000000000000000000004054FB21F93FDE
:104AF0003163621A61B4D03D0000601A61B4D03DE8
:104B00007370032E8A19A33B0000002E8A19A33B61
:104B1000C14920259A837B39000000000000000075
:104B20006E83F9A22915444ED15727FCC0DD34F518
:104B3000999562DB4190433CAB6351FE61C5BBDE9E
:104B40003A6E24B7E0D24D42EA2E49061C92D109B2
:104B50001CEB1DFE3EA729B1F53582E88444BB2E2F
:104B600026709CE9417E5FB439D69139F43953837C
:104B70008B5F849C3B28F9BDFF97F81F0F9805DEDB
:104B80008B112FEF1F6D0A5ACF7E366DB709CB27D9
:104B9000663F464F2DEA5F9EC7BA27757BF1E5EB6E
:104BA000F739073DEA92528AB15FFB6B085D8D1FB2
:104BB000A6F810111111813FD561C119A0012ABFBA
:104BC0007DFEB157E31DC73EEB9C2B8AE6E55ABE3E
:104BD0007CD5CF5A3AD9E53DF84B000800000020BB
:104BE00054000000983F00084C4C0008540000207E
:104BF0006C050000A83F0008000000000000000055
:104C000000000000000000000000000000000000A4
:104C10000000000010000000010000000024F4006B
:104C20000000000000000000000000000000000084
:104C30000000000000000000000000000000000074
:0C4C400000000000000000000000000068
:040000050800019955
:00000001FF
