:020000040800F2
:10000000A8050020AD01000865220008191F00089E
:10001000612200086D090008F126000800000000B8
:10002000000000000000000000000000A322000803
:100030005F0A000800000000A1220008A5220008B5
:10004000C7010008C7010008C7010008C701000870
:10005000C7010008C7010008C7010008C701000860
:10006000C7010008C7010008C7010008C701000850
:10007000C7010008C7010008C7010008C701000840
:10008000C7010008C7010008C70100080000000000
:10009000000000000000000000000000C701000890
:1000A000C7010008C7010008C7010008C701000810
:1000B000C7010008C7010008C7010008C701000800
:1000C000C7010008C7010008C7010008C7010008F0
:1000D000C7010008C7010008C701000800000000B0
:1000E000C7010008C7010008C701000800000000A0
:1000F000000000000000000000000000C701000830
:1001000000000000C7010008C7010008C70100087F
:1001100000000000000000000000000000000000DF
:1001200071090008C7010008C7010008C7010008DD
:10013000C7010008000000000000000000000000EF
:10014000000000000000000000000000C7010008DF
:10015000C7010008C7010008C7010008C70100085F
:10016000C7010008C70100080000000000000000EF
:10017000000000000000000000000000000000007F
:1001800000000000C701000800000000000000009F
:10019000C7010008C7010008DFF80CD000F026FBFB
:1001A000004800472D270008A80500200648804782
:1001B00006480047FEE7FEE7FEE7FEE7FEE7FEE74C
:1001C000FEE7FEE7FEE7FEE72924000899010008A4
:1001D0002DE9F05F0546002092469B46884606467C
:1001E000814640241BE0284641464746224600F00F
:1001F00046FA53465A46C01A914110D31146184642
:10020000224600F02DFA2D1A67EB01084F462246D0
:100210000120002100F024FA17EB00094E41201EB6
:10022000A4F10104DFDC484631462A464346BDE8D6
:10023000F09F2DE9FE4F804681EA0300C00F0C4677
:10024000009021F0004123F00045B8EB0200A941E5
:1002500005D24046214690461C460B46024623F0F6
:100260000040104347D0270DC7F30A00C3F30A51DB
:100270000290401A019040286BDAC3F3130040F457
:10028000801B0098924620B10023D2EB030A63EB57
:100290000B0B01985946C0F14002504600F0E0F9BE
:1002A00006460D4650465946019A00F0F8F910EB03
:1002B00008006141002487EA115284EAE7731A4377
:1002C00040D0009A62B3019A012A4FEA075215DC26
:1002D000001B61EB02014FF0004202EA0752CDE938
:1002E0000042001C41F5801132462B4600F02FFAE7
:1002F00003B0BDE8F08F40462146F9E7001B61EBF3
:100300000201001C41F5801300185B412018A2F582
:10031000001747EB030140EAD570B6196D4111E0B3
:100320006D084FEA360645EAC0754FEA0752001BD2
:1003300061EB0201001C41F5801149084FEA3000D1
:100340000019514132462B4603B0BDE8F04F00F092
:10035000EFB90098012240000023D0EB020263EBCA
:10036000E073009821464FEAE074B8EB000061EBBF
:100370000401E9E783F000435BE781F0004158E7BF
:100380002DE9FE4F81EA030404F0004421F000410E
:1003900000944FF0000B23F0004350EA01045ED0BC
:1003A00052EA03045BD0C3F30A54C1F30A552C4448
:1003B000A4F2F3340194A0FB0254C1F3130141F4FD
:1003C0008011C3F3130343F4801301FB024400FBC9
:1003D000034E840A970A44EA815447EA8357A4FBF0
:1003E000076802958D0A05FB07854FEA932C04FBED
:1003F0000C542705029D4FEA065847EA1637B5EB1D
:1004000008056EEB070C870E920E47EA811742EA49
:100410008312A7FB0201B6EB0B0164EB00042B0D6A
:1004200043EA0C335E1844EB1C50DA465146E7FBB6
:100430000201C5F313044FEA0B3343EA14534FEAA6
:100440000432019C43EA0603A4F10C040294009CCC
:10045000CDE900B400F07BF903B0BDE8F08F0020D7
:100460000146F9E72DE9F04D81EA030404F0004B61
:1004700021F0004514464FF0000A23F0004150EAF5
:10048000050220D054EA01021DD0C5F30A570246E6
:10049000C5F31303C1F31300C1F30A5640F48015EA
:1004A00043F48013A7EB0608101BD64608F2FD386C
:1004B00073EB050002D308F1010801E092185B41DB
:1004C000B8F1000F03DA00200146BDE8F08D0020EE
:1004D0004FF48011064684460EE0171B73EB0507A8
:1004E00005D3121B63EB050306434CEA010C4908D4
:1004F0004FEA300092185B4150EA0107EDD152EA11
:10050000030012D082EA040083EA0501084305D003
:10051000101BAB4106D20122002306E000224FF05F
:10052000004302E06FF0010253101AEB06004CEB9F
:10053000085110EB0A0041EB0B01BDE8F04D00F053
:10054000F7B80EB5C10F80EAE0700844CA07002171
:1005500040F233438DE80E000A460B4600F0F7F8F0
:1005600003B000BD70B5C1F30A5201F0004500248C
:10057000C1F3130140F2FF3341F480119A4201DAD2
:10058000002070BD40F233439A42A2F2334203DCB2
:10059000524200F074F800E090402C43F1D0404209
:1005A00070BD00F0004230F000400AD0C10D01F5EE
:1005B0006071C0F3160042EA0151C20840071143BE
:1005C000704700200146704730B5041E71F10004E9
:1005D00004DB4FF00044404264EB0101141E73F150
:1005E000000405DB1C464FF00043524263EB04035A
:1005F0008B4208BF824230BD30B5041E71F1000449
:1006000004DB4FF00044404264EB0101141E73F11F
:10061000000405DB1C464FF00043524263EB040329
:10062000994208BF904230BD01F0004330B421F040
:10063000004150EA010206D00A0DA2F56072C1F332
:100640001301002A02DC30BC00207047440F44EA4A
:10065000C104C100E01830BC00EBC25000F031B85A
:10066000202A04DB203A00FA02F100207047914072
:10067000C2F1200320FA03F3194390407047202A67
:1006800004DB203A21FA02F00021704721FA02F33C
:10069000D040C2F120029140084319467047202AF9
:1006A00006DBCB17203A41FA02F043EAE07306E09A
:1006B00041FA02F3D040C2F12002914008431946AA
:1006C00070470029A8BF7047401C490008BF20F0B0
:1006D0000100704710B4B0FA80FC00FA0CF050EA48
:1006E000010404BF10BC704749B1CCF1200421FAC9
:1006F00004F411FA0CF118BF012121430843A3EBC4
:100700000C01CB1D4FEA00614FEA102042BF0020D0
:1007100010BC704700EBC35010440029A4BF10BCAC
:100720007047401C490008BF20F0010010BC704712
:1007300010B5141E73F1000408DA401C41F10001E9
:1007400092185B411A4301D120F0010010BD2DE940
:10075000F04D92469B4611B1B1FA81F202E0B0FA37
:1007600080F220329046FFF77BFF04460F4640EAB6
:100770000A0041EA0B0153465A46084313D011467A
:1007800053EA010019D0C8F140025046FFF777FF45
:1007900005460E46504659464246FFF761FF08435C
:1007A00005D0012004E020463946BDE8F08D002048
:1007B000054346EAE0762C4337430A986305E40A8A
:1007C000A0EB08000022FD0A44EA47540A3002D593
:1007D00000200146E9E7010510196941DDE90845F6
:1007E00000196941BDE8F04DA2E70000064C074D35
:1007F00006E0E06840F0010394E8070098471034F1
:10080000AC42F6D3FFF7CCFC0C2C00082C2C0008D3
:1008100054494A6822F440324A604A6843681A439D
:100820004A600268526822F4807203685A60026863
:100830005368026943EA022203685A6002685268F8
:1008400022F0407203685A600268526883681A4353
:1008500003685A600268926822F4006203689A6032
:1008600002689268C3681A4303689A603E4B826AC2
:100870009A4218D00268926822F0706203689A6007
:1008800002689268836A1A4303689A6002689268F1
:1008900022F0405203689A6002689268C36A1A4361
:1008A00003689A600BE00268926822F07062036845
:1008B0009A600268926822F0405203689A60026867
:1008C000926822F0020203689A6002689368826963
:1008D00043EA420203689A60026AA2B1026852685F
:1008E00042F4006203685A600268526822F460426F
:1008F00003685A6002685368426A521E43EA4232F1
:1009000003685A6005E00268526822F400620368D6
:100910005A600268D26A22F470020368DA620268DE
:10092000D36A828B521E43EA02520368DA6202687B
:10093000926822F4007203689A6002689368026BFE
:1009400043EA422203689A600268926822F4806255
:1009500003689A6002689368426943EA82220368E6
:100960009A607047002301400100000F00BFFEE7BE
:1009700010B5024800F0DAF910BD00007400002044
:100980000146087810381823B0FBF3F20848805C61
:10099000C865032A05D908686FF30900001D88653A
:1009A00003E008686FF309008865886D70470000F0
:1009B000E02B0008014600208A6A8B69CBB932B16E
:1009C000012A0DD0022A03D0032A10D10EE000BF65
:1009D000CB6A03F08073B3F1807F00D1012007E080
:1009E000CB6AB3F1C07F00D1012001E000E000BF7D
:1009F00034E08B69B3F5005F1AD132B1012A07D018
:100A0000022A03D0032A11D10AE000BF01200EE020
:100A1000CB6A03F08073B3F1807F00D1012006E040
:100A2000CB6AB3F1C07F00D1012000E000BF15E028
:100A300032B1012A05D0022A04D0032A0CD103E0E6
:100A400000BF00BF012008E0CB6A03F08073B3F160
:100A5000807F00D1012000E000BF00BF70477047D9
:100A600038B502460020009000BF92F83C000128F3
:100A700001D1022038BD012082F83C0000BF086887
:100A8000092816D91068C0680C780A3C04EB4405A4
:100A90000724AC40A0431468E0600C780A3C04EBE7
:100AA00044048868A0401468E46820431468E06047
:100AB00013E0106800690C7804EB44050724AC408F
:100AC000A043146820610C7804EB44048868A040BB
:100AD000146824692043146820614868072817D2E5
:100AE0001068406B0C79641E04EB84051F24AC4035
:100AF000A04314686063088880B20C79641E04EB1C
:100B00008404A0401468646B20431468606331E07F
:100B100048680D2817D21068006B0C79E41F04EBAD
:100B200084051F24AC40A04314682063088880B269
:100B30000C79E41F04EB8404A0401468246B204368
:100B40001468206316E01068C06A0C790D3C04EB51
:100B500084051F24AC40A0431468E062088880B27A
:100B60000C790D3C04EB8404A0401468E46A204333
:100B70001468E0621A4B1B4C1068A04206D108684A
:100B8000122803D1586840F480005860154C106852
:100B9000A0421ED1144C0868A04202D00868112857
:100BA00017D1586840F4000058600F4C0868A04204
:100BB0000FD10E4800680E4CB0FBF4F000EB800043
:100BC0004000009002E00098401E0090009800282D
:100BD000F9D100BF002082F83C0000BF00BF49E708
:100BE00000230140002001401200001010000020EE
:100BF00040420F0070B5044600250CB9012070BDBD
:100C00001549A06A884200D000BF206C30B900208E
:100C1000606484F83C00204600F020F8206C00F06E
:100C2000100088B9206C20F4885040F00200206445
:100C30002046FFF7EDFD00206064206C20F00200EC
:100C400040F00100206400E0012500BF002084F88E
:100C50003C0000BF2846D2E70100000F10B586B067
:100C6000044625492068884244D100BF00200090F6
:100C70002248006840F480702049086008460068F7
:100C800000F48070009000BF00BF1020019003208E
:100C900002900020039001A9194800F0DDF901201D
:100CA0000190032002900020039001A9154800F054
:100CB000D3F9154815490860002048600021134801
:100CC0008160C1604FF480610161890041618900E8
:100CD00081618911C16100210162416200F046F920
:100CE00018B17B210AA001F005FD00BF0748A063F1
:100CF000846300BF06B010BD0020014044380240AC
:100D00000000024000040240106402407400002011
:100D10002E2E2F5372632F73746D333266347878AE
:100D20005F68616C5F6D73702E630000F8B50446F8
:100D3000002000908C4800684FF41651B0FBF1F78A
:100D4000A56D2E6894F85C1008208840304098B15A
:100D50002068006800F0040070B12068006820F08E
:100D600004002168086094F85C1008208840A8609E
:100D7000606D40F00100606594F85C1001208840CF
:100D8000304068B12068406900F0800040B194F8BC
:100D90005C1001208840A860606D40F00200606532
:100DA00094F85C1004208840304068B120680068E6
:100DB00000F0020040B194F85C1004208840A86064
:100DC000606D40F00400606594F85C10102088406D
:100DD000304078B32068006800F0080050B394F801
:100DE0005C1010208840A8602068006800F4802013
:100DF00080B12068006800F4002028B9206CC8B1D8
:100E00002046216C884715E0A06C98B12046A16C63
:100E100088470FE02068006800F4807028B92068D7
:100E2000006820F0080021680860206C10B120469E
:100E3000216C884794F85C102020884030400028BE
:100E400065D02068006800F0100000285FD094F89A
:100E50005C1020208840A86094F83500052828D12F
:100E60002068006820F0160021680860206840694A
:100E700020F0800021684861206C08B9A06C28B17E
:100E80002068006820F008002168086094F85C1071
:100E90003F208840A86000BF002084F8340000BFD5
:100EA000012084F83500206D10B12046216D88475F
:100EB000F8BD2068006800F4802080B120680068D8
:100EC00000F4002028B9606C10B12046616C88479E
:100ED0001DE0E06BD8B12046E16B884717E0206841
:100EE000006800F4807068B92068006820F0100085
:100EF0002168086000BF002084F8340000BF012092
:100F000084F83500E06B10B12046E16B8847606DD6
:100F100038B3606D00F00100F0B1052084F83500B1
:100F20002068006820F001002168086000BF009878
:100F3000401C0090B84200D905E02068006800F02D
:100F400001000028F3D100BF00BF002084F8340066
:100F500000BF012084F83500E06C10B12046E16C40
:100F6000884700BFA4E70000100000202DE9F041F1
:100F70000446002500F060F9074614B90120BDE8D9
:100F8000F081606A00B100BF00BF002084F8340027
:100F900000BF022084F835002068006820F00100BE
:100FA000216808600AE000F047F9C01B052805D950
:100FB00020206065032084F83500E0E720680068A1
:100FC00000F001000028EED12068056821480540A6
:100FD000D4E901010843E1680843216908436169D4
:100FE0000843A1690843E1690843216A08430543AE
:100FF000606A042803D1D4E90B0108430543206843
:1010000005602068456925F00705606A0543606A48
:1010100004280DD1A06A0543E06A48B12046FFF7D5
:10102000C9FC28B140206065012084F83500A6E79E
:10103000206845612046FFF7A3FC064694F85C1043
:101040003F208840B06000206065012084F83500B2
:10105000002094E73F8010F0F8B503460A460025CB
:10106000002400200021CDE0012606FA01F51668D3
:1010700006EA0504AC4273D15668022E02D05668C7
:10108000122E13D1CF0803F1200656F827004E0781
:10109000F70E0F26BE40B0434F07FF0E1669BE4045
:1010A0003043CF0803F1200646F8270018684F00A8
:1010B0000326BE40B043167906F003064F00BE403B
:1010C000304318605668012E08D05668022E05D0AD
:1010D0005668112E02D05668122E13D198684F0010
:1010E0000326BE40B0434F00D668BE4030439860F0
:1010F000586801268E40B0431679C6F300168E401C
:1011000030435860D8684F000326BE40B0434F00BC
:101110009668BE403043D860566806F08056B6F1F7
:10112000805F6ED100BF00260096384E366846F4C8
:101130008046364F3E603E46366806F4804600964E
:1011400000BF00BF324E8F0856F827008E07370FBA
:101150000F26BE40B0432F4EB34202D1002615E009
:101160004FE02D4EB34201D101260FE02B4EB3428A
:1011700001D102260AE02A4EB34201D1032605E03E
:10118000284EB34201D1042600E007268F073F0F07
:10119000BE4030431E4E8F0846F82700224E30686E
:1011A000A043566806F48036B6F5803F00D1204350
:1011B0001D4E3060361D3068A043566806F4003678
:1011C000B6F5003F00D12043174E361D3060361D66
:1011D0003068A043566806F48016B6F5801F00D12B
:1011E0002043114E08363060361D3068A0435668E3
:1011F00006F40016B6F5001F00D120430A4E0C3647
:101200003060491C1029FFF42FAFF8BD443802406C
:10121000083801400000024000040240000802407B
:10122000000C024000100240003C01400AB1816104
:1012300001E00B04836170470148006870470000BB
:101240000400002003480068034909780844014964
:1012500008607047040000200C00002010B50D4805
:10126000006840F400700B4908600846006840F4CC
:10127000806008600846006840F4807008600320C1
:1012800000F0CAF8002000F007F800F02BF800206A
:1012900010BD0000003C024070B504460E480078C6
:1012A0004FF47A71B1FBF0F00C490968B1FBF0F52D
:1012B000284600F01CFC08B1012070BD102C07D29C
:1012C00000222146501E00F068F80548046001E045
:1012D0000120F2E70020F0E70C00002010000020C1
:1012E0000800002008B500BF0020009023480068D7
:1012F00040F48040214908600846006800F48040BE
:10130000009000BF00BF00BF00200090081F0068D1
:1013100040F08050091F08600846006800F08050C7
:10132000009000BF00BF032000F076F800221146B5
:101330006FF00B0000F031F8002211466FF00A0048
:1013400000F02BF8002211466FF0090000F025F89C
:1013500000221146501F00F020F800221146101FF5
:1013600000F01BF800221146901E00F016F8002233
:101370001146501E00F011F808BD0000443802402C
:1013800000BF00F01F02012191404209920002F1CA
:10139000E022C2F8001100BF70472DE9F05F8046DF
:1013A0000D461646002700F05FFF074639462A46DD
:1013B000334601F00700C0F1070ABAF1040F02D961
:1013C0004FF0040A01E0C0F1070AD14600F1040A17
:1013D000BAF1070F02D24FF0000A01E0A0F1030AB0
:1013E000D4464FF0010A0AFA09FAAAF1010A0AEAF8
:1013F000020A0AFA0CFA4FF0010B0BFA0CFBABF1E4
:10140000010B0BEA030B4AEA0B042146404600F0AD
:1014100033FFBDE8F09F000000BF00F00702064B5D
:1014200019684FF6FF031940044B0B4343EA0221AE
:10143000014B196000BF70470CED00E00000FA0599
:1014400070B504460D460CB9012070BD58480068BF
:1014500000F00F00A84209D255490D7008460068F7
:1014600000F00F00A84201D00120EEE7207800F044
:10147000020002281DD1207800F00400042805D1C4
:101480004C48006840F4E0504A490860207800F079
:101490000800082805D14748006840F460404549E5
:1014A00008604448006820F0F000A1680843414902
:1014B0000860207800F00100A8B36068012807D117
:1014C0003C4808380068C0F34040B8B90120BCE788
:1014D0006068022802D06068032807D135480838C0
:1014E0000068C0F3406048B90120AEE731480838D1
:1014F0000068C0F3400008B90120A6E72D48006845
:1015000020F00300616808432A490860FFF794FE51
:10151000064609E0FFF790FE801B41F288318842C1
:1015200002D9032091E707E02248006800F00C0090
:101530006168B0EB810FEDD11D48006800F00F002D
:10154000A84209D91A490D700846006800F00F003A
:10155000A84201D0012078E7207800F00400042898
:1015600007D11448006820F4E050E16808431149AD
:101570000860207800F00800082808D10D480068AD
:1015800020F46040216940EAC1000A49086000F087
:101590001DF808490968C1F30311074A515CC840A6
:1015A000064908600020FFF777FE00204DE70000A5
:1015B000003C024008380240E82B000810000020E0
:1015C0000148006870470000100000202DE9F04736
:1015D000002400250026A1462548006800F00C00E4
:1015E00020B1042805D008283AD105E0DFF884901E
:1015F00039E0DFF8849036E01D48001F006800F0F5
:101600003F041B48001F006800F4800078B11A48AE
:101610001749091F0968C1F38811A0FB0170014631
:10162000224600233846FEF7D3FD05460EE011485A
:101630000F49091F0968C1F38811A0FB0170014619
:10164000224600233846FEF7C3FD05460848001F22
:101650000068C0F30140401C4600B5FBF6F902E00B
:10166000DFF8109000BF00BF4846BDE8F0870000DB
:10167000083802400024F40040787D01F8B50446A3
:101680000CB90120F8BD207800F00100002874D0CA
:10169000F948006800F00C0004280DD0F6480068F6
:1016A00000F00C00082813D1F348001F006800F474
:1016B0008000B0F5800F0BD1EF4808380068C0F308
:1016C0004040002859D06068002856D10120D9E751
:1016D00000BF6068B0F5803F08D1E748083800686F
:1016E00040F48030E449083908601EE06068B0F5D5
:1016F000A02F0DD1E0480838006840F48020DE4972
:10170000083908600846006840F4803008600CE042
:10171000D9480838006820F48030D7490839086073
:101720000846006820F48020086000BF606890B11F
:10173000FFF782FD054606E0FFF77EFD401B6428AB
:1017400001D903209EE7CC4808380068C0F3404028
:101750000028F1D011E0FFF76FFD054606E0FFF726
:101760006BFD401B642801D903208BE7C248083871
:101770000068C0F340400028F1D1207800F002005A
:1017800002285FD1BC48006800F00C0058B1BA488C
:10179000006800F00C0008281CD1B748001F006842
:1017A00000F48000B0B9B44808380068C0F34000C5
:1017B00020B1E068012801D0012063E7AE48083875
:1017C000006820F0F800216940EAC100AA49083900
:1017D000086037E0E06800B30120A8490860FFF71F
:1017E0002BFD054606E0FFF727FD401B022801D927
:1017F000032047E7A04808380068C0F340000028ED
:10180000F1D09D480838006820F0F800216940EACE
:10181000C10099490839086014E000209749086020
:10182000FFF70AFD054606E0FFF706FD401B02280C
:1018300001D9032026E7904808380068C0F340002B
:101840000028F1D1207800F0080008282CD1606928
:10185000A8B101208A490860FFF7EEFC054606E0C2
:10186000FFF7EAFC401B022801D903200AE782485F
:101870006C300068C0F340000028F1D014E0002074
:101880007F490860FFF7D8FC054606E0FFF7D4FC67
:10189000401B022801D90320F4E677486C30006829
:1018A000C0F340000028F1D1207800F004000428A3
:1018B00070D1002670483830006800F0805090B930
:1018C00000BF002000906C483830006840F0805025
:1018D0006949383108600846006800F0805000907F
:1018E00000BF00BF01266748006800F48070B0B9EF
:1018F0006448006840F4807062490860FFF79CFC0F
:10190000054606E0FFF798FC401B022801D903209A
:10191000B8E65C48006800F480700028F2D000BF90
:10192000A068012808D154486830006840F00100E0
:101930005149683108601DE0A06805280DD14E4866
:101940006830006840F004004B4968310860084680
:10195000006840F0010008600CE04748683000680B
:1019600020F001004449683108600846006820F012
:101970000400086000BFA068A8B1FFF75DFC054641
:1019800009E0FFF759FC401B41F28831884202D937
:10199000032077E626E0384868300068C0F340004E
:1019A0000028EED013E0FFF747FC054608E0FFF7FC
:1019B00043FC401B41F28831884201D9032061E693
:1019C0002D4868300068C0F340000028EFD1012E98
:1019D00007D129483830006820F080502649383136
:1019E000086000BFA069B8B32348006800F00C008D
:1019F00008285ED0A069022846D100201F49086649
:101A0000FFF71AFC054606E0FFF716FC401B02280C
:101A100001D9032036E6184808380068C0F3406052
:101A20000028F1D1D4E907010843616A40EA811135
:101A30000122A06AC2EB500041EA00412C20005D67
:101A400041EA00600C49091F086001200B49086643
:101A5000FFF7F2FB054607E02DE0FFF7EDFB401B2B
:101A6000022801D903200DE6034808380068C0F3B6
:101A700040600028F1D01EE00838024000004742D4
:101A8000800E47420070004000200C490866FFF7B6
:101A9000D3FB054606E0FFF7CFFB401B022801D928
:101AA0000320EFE506480068C0F340600028F2D14B
:101AB00001E00120E6E50020E4E5000000004742E7
:101AC00000380240042808D14FF0E021096941F0B4
:101AD00004014FF0E022116107E04FF0E0210969B5
:101AE00021F004014FF0E02211617047704770B59A
:101AF00004462546681EB0F1807F01D301200FE027
:101B0000681E4FF0E02148610F214FF0FF3000F0D8
:101B1000B3FB00204FF0E02188610720086100201E
:101B200070BD10B5FFF7E2FF10BD024600BF92F88E
:101B30003800012801D102207047012082F83800C6
:101B400000BF022082F839001068406820F0700061
:101B500013685860106840680B6818431368586031
:101B60001068806820F080001368986010688068B2
:101B70004B68184313689860012082F8390000BF51
:101B8000002082F8380000BF00BFD5E72DE9F04102
:101B900004460D464FF000080026002714B9012026
:101BA000BDE8F08194F8390028B9002084F83800A5
:101BB000204600F045F8022084F83900206880684B
:101BC00020F0070021688860211D206800F05EFC7D
:101BD0002068D0F80880206886692068076A28682D
:101BE00040EA080840F203308643A969A86840EA41
:101BF0000120064340F60C4086434FF2F000864336
:101C0000E969E86840EA0120064328690001296A79
:101C100040EA0130064327F0220727F08807696968
:101C2000686840EA011007432068C0F8088020680F
:101C3000866120680762012084F839000020AFE740
:101C400010B586B004462349206888421DD100BFE4
:101C5000002000902048006840F002001E49086003
:101C60000846006800F00200009000BF00BFC020DE
:101C70000190022002900020039004900220059021
:101C800001A91648FFF7E8F921E0154920688842C4
:101C90001DD100BF002000900F48006840F00400F4
:101CA0000D4908600846006800F00400009000BF7D
:101CB00000BFC0200190022002900120039000206C
:101CC00004900220059001A90648FFF7C5F906B067
:101CD00010BD0000000400404038024000000240F7
:101CE000000800400004024030B504460D4615B11E
:101CF000042D0CD105E001220021206800F01EFC1B
:101D000010E001220421206800F018FC0AE0012202
:101D10000021206800F012FC01220421206800F05C
:101D20000DFC00BF00BF2068006840F00100216882
:101D30000860002030BD000010B586B00446206861
:101D4000B0F1804F0DD14FF48060019002200290DD
:101D50000020039004900120059001A90248FFF79C
:101D60007BF906B010BD00000004024070B50446C7
:101D70000D46164600BF94F83800012801D1022014
:101D800070BD012084F8380000BF022084F83900BB
:101D900036B1042E1BD0082E31D00C2E5ED145E07A
:101DA0002946206800F0D8FB2068806940F00800D0
:101DB000216888612068806920F0040021688861BA
:101DC00020688069296908432168886147E02946BD
:101DD000206800F0F3FB2068806940F4006021680F
:101DE00088612068806920F48060216888612068AB
:101DF0008069296940EA0120216888612FE029462D
:101E0000206800F013FC2068C06940F008002168D9
:101E1000C8612068C06920F004002168C86120689A
:101E2000C069296908432168C86118E0294620680B
:101E300000F032FC2068C06940F400602168C8618D
:101E40002068C06920F480602168C8612068C0698A
:101E5000296940EA01202168C86100E000BF00BF95
:101E6000012084F8390000BF002084F8380000BF4A
:101E700000BF85E710B504460CB9012010BD94F8E9
:101E8000390028B9002084F83800204600F00CF80A
:101E9000022084F83900211D206800F0F7FA0120A3
:101EA00084F839000020E9E708B50168B1F1804FF6
:101EB0000FD100BF002100910649096841F00101DE
:101EC000044A11601146096801F00101009100BF48
:101ED00000BF08BD4038024030B504460D4601221F
:101EE0002946206800F02AFB0A492068884201D16F
:101EF000012000E0002028B12068406C40F4004040
:101F0000216848642068006840F00100216808608A
:101F1000002030BD0000014000BFFEE71FB51D4896
:101F20001D4908604FF48030486000211A488160E4
:101F300001610121816100210162C1621749816251
:101F40000021C1600221C161012101634161FEF7ED
:101F500051FE18B1E12112A000F0CCFB042000904A
:101F6000012001900420029069460B48FEF778FD9D
:101F700018B1EB210AA000F0BDFB022001906946D8
:101F80000548FEF76DFD18B1F32105A000F0B2FB86
:101F90001FBD0000002001402C0000200100000FA8
:101FA0002E2E2F5372632F6D61696E2E6300000019
:101FB00008B500BF002000900A48006840F4800087
:101FC000084908600846006800F48000009000BFDF
:101FD00000BF002211463820FFF7DFF93820FFF755
:101FE000CFF908BD3038024000B587B000BF0020EF
:101FF00001902F48006840F001002D490860084614
:10200000006800F00100019000BF00BF00BF002089
:1020100001900846006840F0020008600846006829
:1020200000F00200019000BF00BF00BF002001903F
:102030000846006840F0040008600846006800F0A8
:102040000400019000BF00BF002240F20331194894
:10205000FFF7ECF8002280211748FFF7E7F800228D
:1020600020211648FFF7E2F840F2033002900120E9
:10207000039000200490059002A90E48FEF7ECFFA3
:10208000802002900120039000200490059002A976
:102090000948FEF7E1FF2020029001200390002074
:1020A0000490059002A90548FEF7D6FF07B000BDD1
:1020B00030380240000002400008024000040240A4
:1020C00000B589B04FF080401B4908600A20486085
:1020D0000021194881604FF47A71C16000210161CB
:1020E000FFF7C8FE20B14FF4837114A000F002FB8B
:1020F00000200790089007A90F48FFF716FD20B1B0
:1021000040F20D110DA000F0F5FA602000900020C3
:10211000019002900490082269460748FFF726FEC6
:1021200020B14FF48B7105A000F0E4FA0248FFF7EC
:1021300003FE09B000BD0000D40000202E2E2F5356
:1021400072632F6D61696E2E6300000000B58BB065
:102150001A481B4908600020486000211848816027
:102160004EF66021C160002101610320029002202F
:102170000390012004900020059006900790012014
:102180000890002009900A9002A90D48FFF7FEFC74
:1021900020B14FF49A710BA000F0ACFA002000902F
:1021A000019069460648FFF7C0FC20B140F23B11A0
:1021B00004A000F09FFA0BB000BD00000004004036
:1021C000100100202E2E2F5372632F6D61696E2E29
:1021D0006300000000B58BB01B481C49086000205C
:1021E00048600021194881604EF66021C1600021DD
:1021F000016103200290022003900120049000203E
:1022000005900520069002200790012008900020EC
:10221000099005200A9002A90C48FFF7B7FC20B1ED
:1022200040F257110AA000F065FA002000900190DA
:1022300069460648FFF779FC20B14FF4AF7104A05E
:1022400000F058FA0BB000BD000800404C0100201F
:102250002E2E2F5372632F6D61696E2E6300000066
:1022600000BFFEE77047000002480068C0F302208C
:10227000704700000CED00E010B5002807DA0A07EF
:10228000140E054A00F00F031B1FD45403E00A0785
:10229000130E024A135410BD18ED00E000E400E0F4
:1022A0007047704710B52DED048BFEF7CBFFFFF79D
:1022B00038FC1F480068FEF744F941EC180B9FED0D
:1022C0001D0B53EC102BFEF797F929D800F0A0FA5C
:1022D00000F0C8FB194890ED000A10EE101A0846ED
:1022E000FEF75FF941EC190BB0EE490AF0EE690A0E
:1022F00000F002FAB0EE408AF0EE608A9FED100B1B
:1023000053EC102B51EC180BFEF75EF902D200F0E3
:102310004BFB01E000F0A0FB00200549086004E051
:1023200003480068401C02490860BDEC048B10BDE6
:10233000000000200000000000004940980100203B
:1023400055F29C762F1BE43F10B592B000BF0020E1
:1023500000902F48006840F080502D4908600846E2
:10236000006800F08050009000BF00BF00BF002058
:1023700000902848006840F440402649086008461C
:10238000006800F44040009000BF00BF02200690AB
:102390000120099010200A9002200C9000210D913C
:1023A00010210E91C8210F91022110910421119149
:1023B00006A8FFF763F918B1AE2117A000F09AF94B
:1023C0000F20019002200290002003904FF48050D3
:1023D000049000200590032101A8FFF731F818B1FF
:1023E000BC210DA000F086F9FFF7EAF84FF47A71EE
:1023F000B0FBF1F42046FFF77AFB0420FFF762FB05
:1024000000221146501EFEF7C8FF12B010BD00009A
:1024100040380240007000402E2E2F5372632F6D03
:1024200061696E2E630000001448006840F470007B
:10243000124908601248006840F001001049086025
:1024400000200F49083108600D4800680D49084018
:102450000B4908600C48091D0860081F006820F43B
:102460008020091F0860002005490C3108604FF0EA
:1024700000600249803908607047000088ED00E084
:1024800000380240FFFFF6FE1030002400220268F0
:10249000234B98420BD0B0F1804F08D0214B98428B
:1024A00005D0214B984202D0204B984201D1012304
:1024B00000E000231BB122F070024B681A43184B56
:1024C000984214D0B0F1804F11D0164B98420ED0E4
:1024D000154B98420BD0154B984208D0144B98429C
:1024E00005D0144B984202D0134B984201D10123DE
:1024F00000E000231BB122F44072CB681A43026053
:102500008B68C3620B688362054B984201D101233B
:1025100000E000230BB10B690363012343617047A3
:10252000000001400004004000080040000C004092
:1025300000400140004401400048014030B5002304
:10254000012404FA01F3046A9C430462046A02FA57
:1025500001F52C43046230BD30B500240022002375
:10256000056A25F001050562026A4368846924F062
:10257000700424F003040D682C4322F002028D68DD
:102580002A430D4DA84201D1012500E000256DB17F
:1025900022F00802CD682A4322F0040223F480735B
:1025A00023F400734D692B438D692B434360846191
:1025B0004D684563026230BD0000014030B5002423
:1025C00000220023056A25F010050562026A4368AF
:1025D000846924F4E04424F440740D6844EA05243A
:1025E00022F020028D6842EA05120F4DA84201D167
:1025F000012500E0002585B122F08002CD6842EA85
:10260000051222F0400223F4806323F400634D6935
:1026100043EA85038D6943EA8503436084614D681D
:102620008563026230BD00000000014030B5002427
:1026300000220023056A25F480750562026A43685A
:10264000C46924F0700424F003040D682C4322F4C0
:1026500000728D6842EA05220E4DA84201D1012583
:1026600000E0002585B122F40062CD6842EA05222F
:1026700022F4806223F4805323F400534D6943EA2B
:1026800005138D6943EA05134360C4614D68C56352
:10269000026230BD0000014030B50022002300245A
:1026A000056A25F480550562036A4468C26922F40C
:1026B000E04222F440720D6842EA052223F40053FE
:1026C0008D6843EA0533094DA84201D1012500E098
:1026D000002525B124F480444D6944EA8514446002
:1026E000C2614D680564036230BD00000000014016
:1026F00000BFFEE700BFFEE72DED020B019820F0C2
:10270000004001909DED000B02B0704702E008C848
:10271000121F08C1002AFAD170477047002001E05B
:1027200001C1121F002AFBD170470000FEF796FD81
:10273000FFF70AFEFFF758FCFFF73AFCFFF7C0FC73
:10274000FFF7ECFBFFF746FDFFF700FD18210648F9
:10275000FFF7CAFA18210548FFF7C6FA082104480E
:10276000FFF7BAFB00BFFEE74C010020100100207C
:10277000D400002010B50446201E01DB014600E015
:102780004142B1F57A7F06DD002C02DD4FF47A700C
:1027900000E01A4804464CB9002202211848FEF70E
:1027A00045FD002117480068C16310BD01220221C8
:1027B0001348FEF73BFD002C0ADD00228021124861
:1027C000FEF734FD012220211048FEF72FFD0BE01B
:1027D000002C09DA002220210C48FEF727FD0122F7
:1027E00080210948FEF722FD201E01DB014600E0A2
:1027F0004142044A1268D16300BFD6E718FCFFFFCC
:1028000000000240D4000020000802400004024002
:1028100010B52DED0C8B5748046857480068201AF6
:1028200000EE100AB8EEC00AB0EE408A18EE100AA8
:10283000FDF7B7FE41EC1A0BB0EE4A0AF0EE6A0A59
:10284000FFF75AFFB0EE409AF0EE609A9FED4B0B07
:1028500053EC102B51EC190BFDF7CEFE46D2464837
:102860000068844221DD44480068FDF76AFE41ECBF
:102870001B0B2046FDF765FE41EC1D0B9FED410B48
:1028800053EC102BFDF779FD41EC1C0B53EC1B2B8B
:10289000FDF7CFFC41EC1A0B81F0004141EC190B24
:1028A000FDF7C2FE08EE100A20E0334800688442BB
:1028B0001CDA2046FDF745FE41EC1A0B2E48006855
:1028C000FDF73FFE41EC1C0B9FED2E0B53EC102B44
:1028D000FDF753FD41EC1B0B53EC1A2BFDF7A9FC44
:1028E00041EC190BFDF7A0FE08EE100ABDEEC80A78
:1028F000264880ED000A264890ED000AB8EEC00A8E
:1029000030EE080ABDEEC00A80ED000A19480068E2
:10291000194908601E480068FDF713FE41EC1A0BC8
:102920009FED1C0B53EC102BFDF72AFD41EC190B0E
:10293000FDF77AFE1949086018EE100AFDF731FE1E
:1029400041EC1B0B9FED160B53EC102BFDF78AFD92
:1029500041EC1A0B9FED0F0B53EC102BFDF710FD04
:1029600041EC190BFDF760FE0C494860BDEC0C8B87
:1029700010BD0000240400401400002000000000EE
:10298000004CDD4000000000004CED401C00002029
:102990001800002055F29C762F1BD43F88010020A0
:1029A0009A9999999999A93F00B52DED028B83B019
:1029B000244A07CA8DE807009DED000A2248D0EDA1
:1029C000000A20EE200ADDED010A90ED011A00EE6A
:1029D000810ADDED020A1D4890ED011A00EE810A20
:1029E000B0EE408A9FED1A0A28EE000AF3EE020AC2
:1029F00080EE201AB0EE418ABDEEC80A10EE100A31
:102A0000002801DB014600E04142B1F57A7F0EDD8E
:102A1000B5EEC08AF1EE10FA02DD4FF47A7000E0F4
:102A20000C4800EE100AB8EEC00AB0EE408ABDEEC7
:102A3000C80A10EE100AFFF79DFE03B0BDEC028B32
:102A400000BD0000002C0008980100208801002033
:102A500000007A4418FCFFFF10B50020FFF78AFE43
:102A600010BD000070B52DED0A8B4E4805684E482C
:102A700000682C1A261E01DB314600E07142084630
:102A8000FDF75FFD41EC180B9FED480B53EC102B4D
:102A9000FDF7B2FD44D244480068854220DD42483B
:102AA0000068FDF74EFD41EC1A0B2846FDF749FD85
:102AB00041EC1C0B9FED3F0B53EC102BFDF75DFC25
:102AC00041EC1B0B53EC1A2BFDF7B3FB41EC190B3C
:102AD00081F0004141EC180BFDF744FD04461FE076
:102AE0003148006885421BDA2846FDF72AFD41EC93
:102AF000190B2D480068FDF724FD41EC1B0B9FEDE1
:102B00002D0B53EC102BFDF738FC41EC1A0B53EC5A
:102B1000192BFDF78EFB41EC180BFDF723FD044646
:102B200026480460264800682044254908601D485E
:102B300000681D49086022480068FDF702FD41EC6D
:102B40001A0B9FED200B53EC102BFDF719FC41ECF9
:102B5000190B9FED1E0B53EC102BFDF70BFC41ECFA
:102B6000180BFDF761FD1B4908602046FDF7E9FCE5
:102B700041EC1A0B9FED180B53EC102BFDF772FC78
:102B800041EC190B9FED0F0B53EC102BFDF7F8FBED
:102B900041EC180BFDF748FD0E494860BDEC0A8B6F
:102BA00070BD00002408004020000020000000004C
:102BB000004CDD4000000000004CED4028000020EB
:102BC00024000020058BC9C25472653FAE47E17AEC
:102BD00014AEF73F980100209A9999999999A93FC5
:102BE000000610160006101600000000000000008D
:102BF00001020304060708090000000001020304A3
:102C0000B469DC43CED96342C9C8593E2C2C0008B4
:102C1000000000202C0000000C270008582C0008A1
:102C20002C0000207C0500001C270008000000008C
:102C30000000000010000000010000000024F4006B
:102C40000000000000000000000000000000000084
:082C500000000000000000007C
:040000050800019955
:00000001FF
